{
  "address": "0xF1aeABC27615cD0f0Dc2A0d190835CFf5F2680AE",
  "abi": [
    {
      "inputs": [
        {
          "internalType": "address",
          "name": "blitmapAddress",
          "type": "address"
        }
      ],
      "stateMutability": "payable",
      "type": "constructor"
    },
    {
      "anonymous": false,
      "inputs": [
        {
          "indexed": true,
          "internalType": "address",
          "name": "owner",
          "type": "address"
        },
        {
          "indexed": true,
          "internalType": "address",
          "name": "approved",
          "type": "address"
        },
        {
          "indexed": true,
          "internalType": "uint256",
          "name": "tokenId",
          "type": "uint256"
        }
      ],
      "name": "Approval",
      "type": "event"
    },
    {
      "anonymous": false,
      "inputs": [
        {
          "indexed": true,
          "internalType": "address",
          "name": "owner",
          "type": "address"
        },
        {
          "indexed": true,
          "internalType": "address",
          "name": "operator",
          "type": "address"
        },
        {
          "indexed": false,
          "internalType": "bool",
          "name": "approved",
          "type": "bool"
        }
      ],
      "name": "ApprovalForAll",
      "type": "event"
    },
    {
      "anonymous": false,
      "inputs": [
        {
          "indexed": true,
          "internalType": "address",
          "name": "previousOwner",
          "type": "address"
        },
        {
          "indexed": true,
          "internalType": "address",
          "name": "newOwner",
          "type": "address"
        }
      ],
      "name": "OwnershipTransferred",
      "type": "event"
    },
    {
      "anonymous": false,
      "inputs": [
        {
          "indexed": true,
          "internalType": "address",
          "name": "from",
          "type": "address"
        },
        {
          "indexed": true,
          "internalType": "address",
          "name": "to",
          "type": "address"
        },
        {
          "indexed": true,
          "internalType": "uint256",
          "name": "tokenId",
          "type": "uint256"
        }
      ],
      "name": "Transfer",
      "type": "event"
    },
    {
      "inputs": [],
      "name": "BLITMAP_ADDRESS",
      "outputs": [
        {
          "internalType": "address",
          "name": "",
          "type": "address"
        }
      ],
      "stateMutability": "view",
      "type": "function"
    },
    {
      "inputs": [],
      "name": "MINT_PRICE",
      "outputs": [
        {
          "internalType": "uint256",
          "name": "",
          "type": "uint256"
        }
      ],
      "stateMutability": "view",
      "type": "function"
    },
    {
      "inputs": [],
      "name": "ROYALTY_AMOUNT",
      "outputs": [
        {
          "internalType": "uint256",
          "name": "",
          "type": "uint256"
        }
      ],
      "stateMutability": "view",
      "type": "function"
    },
    {
      "inputs": [
        {
          "internalType": "string",
          "name": "name",
          "type": "string"
        },
        {
          "internalType": "string",
          "name": "filter",
          "type": "string"
        }
      ],
      "name": "addFilter",
      "outputs": [],
      "stateMutability": "nonpayable",
      "type": "function"
    },
    {
      "inputs": [
        {
          "internalType": "address",
          "name": "to",
          "type": "address"
        },
        {
          "internalType": "uint256",
          "name": "tokenId",
          "type": "uint256"
        }
      ],
      "name": "approve",
      "outputs": [],
      "stateMutability": "nonpayable",
      "type": "function"
    },
    {
      "inputs": [
        {
          "internalType": "address",
          "name": "owner",
          "type": "address"
        }
      ],
      "name": "balanceOf",
      "outputs": [
        {
          "internalType": "uint256",
          "name": "",
          "type": "uint256"
        }
      ],
      "stateMutability": "view",
      "type": "function"
    },
    {
      "inputs": [
        {
          "internalType": "uint256",
          "name": "tokenId",
          "type": "uint256"
        }
      ],
      "name": "filtersFor",
      "outputs": [
        {
          "components": [
            {
              "internalType": "string",
              "name": "filter1",
              "type": "string"
            },
            {
              "internalType": "string",
              "name": "filter2",
              "type": "string"
            },
            {
              "internalType": "string",
              "name": "filter3",
              "type": "string"
            }
          ],
          "internalType": "struct Blitpops.FilterMatrix",
          "name": "",
          "type": "tuple"
        }
      ],
      "stateMutability": "view",
      "type": "function"
    },
    {
      "inputs": [
        {
          "internalType": "uint256",
          "name": "tokenId",
          "type": "uint256"
        }
      ],
      "name": "getApproved",
      "outputs": [
        {
          "internalType": "address",
          "name": "",
          "type": "address"
        }
      ],
      "stateMutability": "view",
      "type": "function"
    },
    {
      "inputs": [
        {
          "internalType": "address",
          "name": "owner",
          "type": "address"
        },
        {
          "internalType": "address",
          "name": "operator",
          "type": "address"
        }
      ],
      "name": "isApprovedForAll",
      "outputs": [
        {
          "internalType": "bool",
          "name": "",
          "type": "bool"
        }
      ],
      "stateMutability": "view",
      "type": "function"
    },
    {
      "inputs": [],
      "name": "listFilters",
      "outputs": [
        {
          "internalType": "string[]",
          "name": "",
          "type": "string[]"
        }
      ],
      "stateMutability": "view",
      "type": "function"
    },
    {
      "inputs": [],
      "name": "name",
      "outputs": [
        {
          "internalType": "string",
          "name": "",
          "type": "string"
        }
      ],
      "stateMutability": "view",
      "type": "function"
    },
    {
      "inputs": [],
      "name": "owner",
      "outputs": [
        {
          "internalType": "address",
          "name": "",
          "type": "address"
        }
      ],
      "stateMutability": "view",
      "type": "function"
    },
    {
      "inputs": [
        {
          "internalType": "uint256",
          "name": "tokenId",
          "type": "uint256"
        },
        {
          "internalType": "string",
          "name": "filter1",
          "type": "string"
        },
        {
          "internalType": "string",
          "name": "filter2",
          "type": "string"
        },
        {
          "internalType": "string",
          "name": "filter3",
          "type": "string"
        }
      ],
      "name": "ownerMint",
      "outputs": [],
      "stateMutability": "payable",
      "type": "function"
    },
    {
      "inputs": [
        {
          "internalType": "uint256",
          "name": "tokenId",
          "type": "uint256"
        }
      ],
      "name": "ownerOf",
      "outputs": [
        {
          "internalType": "address",
          "name": "",
          "type": "address"
        }
      ],
      "stateMutability": "view",
      "type": "function"
    },
    {
      "inputs": [],
      "name": "renounceOwnership",
      "outputs": [],
      "stateMutability": "nonpayable",
      "type": "function"
    },
    {
      "inputs": [
        {
          "internalType": "uint256",
          "name": "tokenId",
          "type": "uint256"
        },
        {
          "internalType": "uint256",
          "name": "value",
          "type": "uint256"
        },
        {
          "internalType": "bytes",
          "name": "_data",
          "type": "bytes"
        }
      ],
      "name": "royaltyInfo",
      "outputs": [
        {
          "internalType": "address",
          "name": "_receiver",
          "type": "address"
        },
        {
          "internalType": "uint256",
          "name": "royaltyAmount",
          "type": "uint256"
        }
      ],
      "stateMutability": "view",
      "type": "function"
    },
    {
      "inputs": [
        {
          "internalType": "address",
          "name": "from",
          "type": "address"
        },
        {
          "internalType": "address",
          "name": "to",
          "type": "address"
        },
        {
          "internalType": "uint256",
          "name": "tokenId",
          "type": "uint256"
        }
      ],
      "name": "safeTransferFrom",
      "outputs": [],
      "stateMutability": "nonpayable",
      "type": "function"
    },
    {
      "inputs": [
        {
          "internalType": "address",
          "name": "from",
          "type": "address"
        },
        {
          "internalType": "address",
          "name": "to",
          "type": "address"
        },
        {
          "internalType": "uint256",
          "name": "tokenId",
          "type": "uint256"
        },
        {
          "internalType": "bytes",
          "name": "_data",
          "type": "bytes"
        }
      ],
      "name": "safeTransferFrom",
      "outputs": [],
      "stateMutability": "nonpayable",
      "type": "function"
    },
    {
      "inputs": [
        {
          "internalType": "address",
          "name": "operator",
          "type": "address"
        },
        {
          "internalType": "bool",
          "name": "approved",
          "type": "bool"
        }
      ],
      "name": "setApprovalForAll",
      "outputs": [],
      "stateMutability": "nonpayable",
      "type": "function"
    },
    {
      "inputs": [
        {
          "internalType": "bytes4",
          "name": "interfaceId",
          "type": "bytes4"
        }
      ],
      "name": "supportsInterface",
      "outputs": [
        {
          "internalType": "bool",
          "name": "",
          "type": "bool"
        }
      ],
      "stateMutability": "view",
      "type": "function"
    },
    {
      "inputs": [
        {
          "internalType": "uint256",
          "name": "tokenId",
          "type": "uint256"
        },
        {
          "internalType": "string",
          "name": "filter1",
          "type": "string"
        },
        {
          "internalType": "string",
          "name": "filter2",
          "type": "string"
        },
        {
          "internalType": "string",
          "name": "filter3",
          "type": "string"
        }
      ],
      "name": "svgBase64Data",
      "outputs": [
        {
          "internalType": "string",
          "name": "",
          "type": "string"
        }
      ],
      "stateMutability": "view",
      "type": "function"
    },
    {
      "inputs": [],
      "name": "symbol",
      "outputs": [
        {
          "internalType": "string",
          "name": "",
          "type": "string"
        }
      ],
      "stateMutability": "view",
      "type": "function"
    },
    {
      "inputs": [
        {
          "internalType": "uint256",
          "name": "index",
          "type": "uint256"
        }
      ],
      "name": "tokenByIndex",
      "outputs": [
        {
          "internalType": "uint256",
          "name": "",
          "type": "uint256"
        }
      ],
      "stateMutability": "view",
      "type": "function"
    },
    {
      "inputs": [
        {
          "internalType": "address",
          "name": "owner",
          "type": "address"
        },
        {
          "internalType": "uint256",
          "name": "index",
          "type": "uint256"
        }
      ],
      "name": "tokenOfOwnerByIndex",
      "outputs": [
        {
          "internalType": "uint256",
          "name": "",
          "type": "uint256"
        }
      ],
      "stateMutability": "view",
      "type": "function"
    },
    {
      "inputs": [
        {
          "internalType": "uint256",
          "name": "tokenId",
          "type": "uint256"
        }
      ],
      "name": "tokenURI",
      "outputs": [
        {
          "internalType": "string",
          "name": "",
          "type": "string"
        }
      ],
      "stateMutability": "view",
      "type": "function"
    },
    {
      "inputs": [],
      "name": "totalSupply",
      "outputs": [
        {
          "internalType": "uint256",
          "name": "",
          "type": "uint256"
        }
      ],
      "stateMutability": "view",
      "type": "function"
    },
    {
      "inputs": [
        {
          "internalType": "address",
          "name": "from",
          "type": "address"
        },
        {
          "internalType": "address",
          "name": "to",
          "type": "address"
        },
        {
          "internalType": "uint256",
          "name": "tokenId",
          "type": "uint256"
        }
      ],
      "name": "transferFrom",
      "outputs": [],
      "stateMutability": "nonpayable",
      "type": "function"
    },
    {
      "inputs": [
        {
          "internalType": "address",
          "name": "newOwner",
          "type": "address"
        }
      ],
      "name": "transferOwnership",
      "outputs": [],
      "stateMutability": "nonpayable",
      "type": "function"
    },
    {
      "inputs": [
        {
          "internalType": "uint256",
          "name": "tokenId",
          "type": "uint256"
        },
        {
          "internalType": "string",
          "name": "filter1",
          "type": "string"
        },
        {
          "internalType": "string",
          "name": "filter2",
          "type": "string"
        },
        {
          "internalType": "string",
          "name": "filter3",
          "type": "string"
        }
      ],
      "name": "updateFilters",
      "outputs": [],
      "stateMutability": "nonpayable",
      "type": "function"
    },
    {
      "inputs": [],
      "name": "withdraw",
      "outputs": [],
      "stateMutability": "nonpayable",
      "type": "function"
    }
  ],
  "transactionHash": "0xff37159cf6c12bb9cacf93df647be2f61f68b3e6f9bb63f381f4b48ab1f5f81b",
  "args": [
    "0xf6A56f5B9cff7f84320C85C71Cac94092d3CD424"
  ],
  "solcInputHash": "b821d165952bdc9996f02a9ecef0ba36",
  "bytecode": "0x608060405260405162003dbb38038062003dbb8339810160408190526200002691620005d0565b604051806040016040528060078152602001660426c6974706f760cc1b815250604051806040016040528060078152602001660424c4954504f560cc1b815250620000806200007a620003b260201b60201c565b620003b6565b81516200009590600290602085019062000464565b508051620000ab90600390602084019062000464565b50620000c2915063c155531d60e01b905062000406565b600c80546001600160a01b0319166001600160a01b03831617905560408051808201825260058152641e39bb339f60d91b60208201529051600d90620001089062000663565b908152602001604051809103902090805190602001906200012b92919062000464565b506040518060e0016040528060a9815260200162003c7760a99139600d60405162000156906200064e565b908152602001604051809103902090805190602001906200017992919062000464565b506040518060c00160405280609b815260200162003d20609b9139600d604051620001a49062000622565b90815260200160405180910390209080519060200190620001c792919062000464565b506040518060e0016040528060a8815260200162003b4f60a89139600d604051620001f29062000600565b908152602001604051809103902090805190602001906200021592919062000464565b506040518060c00160405280608e815260200162003ac1608e9139600d60405162000240906200063c565b908152602001604051809103902090805190602001906200026392919062000464565b506040518060a001604052806080815260200162003bf760809139600d6040516200028e9062000613565b90815260200160405180910390209080519060200190620002b192919062000464565b506040518060c00160405280604051806040016040528060028152602001616f6760f01b81525081526020016040518060400160405280600981526020016863616d7062656c6c7360b81b81525081526020016040518060400160405280600e81526020016d32b632b1ba3934b196b1b430b4b960911b81525081526020016040518060400160405280600781526020016636b0b934b63cb760c91b8152508152602001604051806040016040528060068152602001656272696c6c6f60d01b81525081526020016040518060400160405280600381526020016262267760e81b815250815250600e906006620003aa929190620004f3565b5050620006e5565b3390565b600080546001600160a01b038381166001600160a01b0319831681178455604051919092169283917f8be0079c531659141344cd1fd0a4f28419497f9722a3daafe3b4186f6b6457e09190a35050565b6001600160e01b031980821614156200043c5760405162461bcd60e51b8152600401620004339062000671565b60405180910390fd5b6001600160e01b0319166000908152600160208190526040909120805460ff19169091179055565b8280546200047290620006a8565b90600052602060002090601f016020900481019282620004965760008555620004e1565b82601f10620004b157805160ff1916838001178555620004e1565b82800160010185558215620004e1579182015b82811115620004e1578251825591602001919060010190620004c4565b50620004ef92915062000553565b5090565b82805482825590600052602060002090810192821562000545579160200282015b828111156200054557825180516200053491849160209091019062000464565b509160200191906001019062000514565b50620004ef9291506200056a565b5b80821115620004ef576000815560010162000554565b80821115620004ef5760006200058182826200058b565b506001016200056a565b5080546200059990620006a8565b6000825580601f10620005ad5750620005cd565b601f016020900490600052602060002090810190620005cd919062000553565b50565b600060208284031215620005e2578081fd5b81516001600160a01b0381168114620005f9578182fd5b9392505050565b6636b0b934b63cb760c91b815260070190565b6262267760e81b815260030190565b6d32b632b1ba3934b196b1b430b4b960911b8152600e0190565b656272696c6c6f60d01b815260060190565b6863616d7062656c6c7360b81b815260090190565b616f6760f01b815260020190565b6020808252601c908201527f4552433136353a20696e76616c696420696e7465726661636520696400000000604082015260600190565b600281046001821680620006bd57607f821691505b60208210811415620006df57634e487b7160e01b600052602260045260246000fd5b50919050565b6133cc80620006f56000396000f3fe6080604052600436106101cd5760003560e01c80639143bafc116100f7578063c155531d11610095578063f22998a811610064578063f22998a8146104f1578063f2fde38b14610511578063f61f6e0314610531578063fc194cf61461055e576101cd565b8063c155531d1461046e578063c87b56dd1461049c578063d9f7ce82146104bc578063e985e9c5146104d1576101cd565b8063a22cb465116100d1578063a22cb46514610404578063b2c7517214610424578063b88d4fde14610439578063c002d23d14610459576101cd565b80639143bafc146103bc57806395d89b41146103dc578063a13170e8146103f1576101cd565b80633ccfd60b1161016f5780636352211e1161013e5780636352211e1461035257806370a0823114610372578063715018a6146103925780638da5cb5b146103a7576101cd565b80633ccfd60b146102db57806342842e0e146102f05780634f6ccce71461031057806350a1151d14610330576101cd565b8063095ea7b3116101ab578063095ea7b31461025757806318160ddd1461027957806323b872dd1461029b5780632f745c59146102bb576101cd565b806301ffc9a7146101d257806306fdde0314610208578063081812fc1461022a575b600080fd5b3480156101de57600080fd5b506101f26101ed366004612329565b61057e565b6040516101ff9190612b1c565b60405180910390f35b34801561021457600080fd5b5061021d610591565b6040516101ff9190612b27565b34801561023657600080fd5b5061024a610245366004612435565b610623565b6040516101ff9190612a5c565b34801561026357600080fd5b50610277610272366004612300565b61066f565b005b34801561028557600080fd5b5061028e610707565b6040516101ff91906130b2565b3480156102a757600080fd5b506102776102b6366004612212565b61070d565b3480156102c757600080fd5b5061028e6102d6366004612300565b610745565b3480156102e757600080fd5b50610277610797565b3480156102fc57600080fd5b5061027761030b366004612212565b610805565b34801561031c57600080fd5b5061028e61032b366004612435565b610820565b34801561033c57600080fd5b5061034561087b565b6040516101ff9190612abc565b34801561035e57600080fd5b5061024a61036d366004612435565b610954565b34801561037e57600080fd5b5061028e61038d3660046121c6565b610989565b34801561039e57600080fd5b506102776109cd565b3480156103b357600080fd5b5061024a610a18565b3480156103c857600080fd5b506102776103d736600461244d565b610a27565b3480156103e857600080fd5b5061021d610adb565b6102776103ff36600461244d565b610aea565b34801561041057600080fd5b5061027761041f3660046122c6565b610b70565b34801561043057600080fd5b5061028e610c3e565b34801561044557600080fd5b5061027761045436600461224d565b610c43565b34801561046557600080fd5b5061028e610c7c565b34801561047a57600080fd5b5061048e6104893660046124cf565b610c87565b6040516101ff929190612aa3565b3480156104a857600080fd5b5061021d6104b7366004612435565b610cb7565b3480156104c857600080fd5b5061024a610f9b565b3480156104dd57600080fd5b506101f26104ec3660046121e0565b610faa565b3480156104fd57600080fd5b5061027761050c3660046123d4565b610fd8565b34801561051d57600080fd5b5061027761052c3660046121c6565b61108d565b34801561053d57600080fd5b5061055161054c366004612435565b6110fb565b6040516101ff919061305a565b34801561056a57600080fd5b5061021d61057936600461244d565b6112d8565b600061058982611318565b90505b919050565b6060600280546105a0906132be565b80601f01602080910402602001604051908101604052809291908181526020018280546105cc906132be565b80156106195780601f106105ee57610100808354040283529160200191610619565b820191906000526020600020905b8154815290600101906020018083116105fc57829003601f168201915b5050505050905090565b600061062e82611349565b6106535760405162461bcd60e51b815260040161064a90612e63565b60405180910390fd5b506000908152600660205260409020546001600160a01b031690565b600061067a82610954565b9050806001600160a01b0316836001600160a01b031614156106ae5760405162461bcd60e51b815260040161064a90612f7c565b806001600160a01b03166106c0611366565b6001600160a01b031614806106dc57506106dc816104ec611366565b6106f85760405162461bcd60e51b815260040161064a90612d1b565b610702838361136a565b505050565b600a5490565b61071e610718611366565b826113d8565b61073a5760405162461bcd60e51b815260040161064a90612fbd565b610702838383611455565b600061075083610989565b821061076e5760405162461bcd60e51b815260040161064a90612b3a565b506001600160a01b03919091166000908152600860209081526040808320938352929052205490565b61079f611366565b6001600160a01b03166107b0610a18565b6001600160a01b0316146107d65760405162461bcd60e51b815260040161064a90612eaf565b60405133904780156108fc02916000818181858888f19350505050158015610802573d6000803e3d6000fd5b50565b61070283838360405180602001604052806000815250610c43565b600061082a610707565b82106108485760405162461bcd60e51b815260040161064a9061300e565b600a828154811061086957634e487b7160e01b600052603260045260246000fd5b90600052602060002001549050919050565b6060600e805480602002602001604051908101604052809291908181526020016000905b8282101561094b5783829060005260206000200180546108be906132be565b80601f01602080910402602001604051908101604052809291908181526020018280546108ea906132be565b80156109375780601f1061090c57610100808354040283529160200191610937565b820191906000526020600020905b81548152906001019060200180831161091a57829003601f168201915b50505050508152602001906001019061089f565b50505050905090565b6000818152600460205260408120546001600160a01b0316806105895760405162461bcd60e51b815260040161064a90612de5565b60006001600160a01b0382166109b15760405162461bcd60e51b815260040161064a90612d9b565b506001600160a01b031660009081526005602052604090205490565b6109d5611366565b6001600160a01b03166109e6610a18565b6001600160a01b031614610a0c5760405162461bcd60e51b815260040161064a90612eaf565b610a166000611582565b565b6000546001600160a01b031690565b610a3084610954565b6001600160a01b0316336001600160a01b031614610a605760405162461bcd60e51b815260040161064a90612d78565b6040805160608101825284815260208082018590528183018490526000878152600f8252929092208151805192939192610a9d928492019061207e565b506020828101518051610ab6926001850192019061207e565b5060408201518051610ad291600284019160209091019061207e565b50505050505050565b6060600380546105a0906132be565b6040805160608101825284815260208082018590528183018490526000878152600f8252929092208151805192939192610b27928492019061207e565b506020828101518051610b40926001850192019061207e565b5060408201518051610b5c91600284019160209091019061207e565b50905050610b6a33856115d2565b50505050565b610b78611366565b6001600160a01b0316826001600160a01b03161415610ba95760405162461bcd60e51b815260040161064a90612c98565b8060076000610bb6611366565b6001600160a01b03908116825260208083019390935260409182016000908120918716808252919093529120805460ff191692151592909217909155610bfa611366565b6001600160a01b03167f17307eab39ab6107e8899845ad3d59bd9653f200f220920489ca2b5937696c3183604051610c329190612b1c565b60405180910390a35050565b600a81565b610c54610c4e611366565b836113d8565b610c705760405162461bcd60e51b815260040161064a90612fbd565b610b6a848484846116b1565b66470de4df82000081565b6000806064610c97600a8761325c565b610ca19190613131565b9050610cab610a18565b91505b94509492505050565b6060610cc282611349565b610cde5760405162461bcd60e51b815260040161064a90612f2d565b6000828152600f6020526040808220815160608101909252805482908290610d05906132be565b80601f0160208091040260200160405190810160405280929190818152602001828054610d31906132be565b8015610d7e5780601f10610d5357610100808354040283529160200191610d7e565b820191906000526020600020905b815481529060010190602001808311610d6157829003601f168201915b50505050508152602001600182018054610d97906132be565b80601f0160208091040260200160405190810160405280929190818152602001828054610dc3906132be565b8015610e105780601f10610de557610100808354040283529160200191610e10565b820191906000526020600020905b815481529060010190602001808311610df357829003601f168201915b50505050508152602001600282018054610e29906132be565b80601f0160208091040260200160405190810160405280929190818152602001828054610e55906132be565b8015610ea25780601f10610e7757610100808354040283529160200191610ea2565b820191906000526020600020905b815481529060010190602001808311610e8557829003601f168201915b505050919092525050600c546040516338c9319960e21b8152929350610f74926001600160a01b03909116915063e324c66490610ee39087906004016130b2565b60006040518083038186803b158015610efb57600080fd5b505afa158015610f0f573d6000803e3d6000fd5b505050506040513d6000823e601f3d908101601f19168201604052610f379190810190612361565b610f4f858460000151856020015186604001516112d8565b604051602001610f609291906126c8565b6040516020818303038152906040526116e4565b604051602001610f8491906129d2565b604051602081830303815290604052915050919050565b600c546001600160a01b031681565b6001600160a01b03918216600090815260076020908152604080832093909416825291909152205460ff1690565b610fe0611366565b6001600160a01b0316610ff1610a18565b6001600160a01b0316146110175760405162461bcd60e51b815260040161064a90612eaf565b600e8054600181018255600091909152825161105a917fbb7b4a454dc3493923482f07822329ed19e8244eff582cc204f8554c3620c3fd0190602085019061207e565b5080600d8360405161106c91906126ac565b9081526020016040518091039020908051906020019061070292919061207e565b611095611366565b6001600160a01b03166110a6610a18565b6001600160a01b0316146110cc5760405162461bcd60e51b815260040161064a90612eaf565b6001600160a01b0381166110f25760405162461bcd60e51b815260040161064a90612bd7565b61080281611582565b611103612102565b6000828152600f60205260409081902081516060810190925280548290829061112b906132be565b80601f0160208091040260200160405190810160405280929190818152602001828054611157906132be565b80156111a45780601f10611179576101008083540402835291602001916111a4565b820191906000526020600020905b81548152906001019060200180831161118757829003601f168201915b505050505081526020016001820180546111bd906132be565b80601f01602080910402602001604051908101604052809291908181526020018280546111e9906132be565b80156112365780601f1061120b57610100808354040283529160200191611236565b820191906000526020600020905b81548152906001019060200180831161121957829003601f168201915b5050505050815260200160028201805461124f906132be565b80601f016020809104026020016040519081016040528092919081815260200182805461127b906132be565b80156112c85780601f1061129d576101008083540402835291602001916112c8565b820191906000526020600020905b8154815290600101906020018083116112ab57829003601f168201915b5050505050815250509050919050565b60606112ee6112e986868686611858565b6116e4565b6040516020016112fe9190612a17565b60405160208183030381529060405290505b949350505050565b6000611323826119db565b806105895750506001600160e01b03191660009081526001602052604090205460ff1690565b6000908152600460205260409020546001600160a01b0316151590565b3390565b600081815260066020526040902080546001600160a01b0319166001600160a01b038416908117909155819061139f82610954565b6001600160a01b03167f8c5be1e5ebec7d5bd14f71427d1e84f3dd0314c0f7b2291e5b200ac8c7c3b92560405160405180910390a45050565b60006113e382611349565b6113ff5760405162461bcd60e51b815260040161064a90612ccf565b600061140a83610954565b9050806001600160a01b0316846001600160a01b031614806114455750836001600160a01b031661143a84610623565b6001600160a01b0316145b8061131057506113108185610faa565b826001600160a01b031661146882610954565b6001600160a01b03161461148e5760405162461bcd60e51b815260040161064a90612ee4565b6001600160a01b0382166114b45760405162461bcd60e51b815260040161064a90612c54565b6114bf8383836119f4565b6114ca60008261136a565b6001600160a01b03831660009081526005602052604081208054600192906114f390849061327b565b90915550506001600160a01b0382166000908152600560205260408120805460019290611521908490613119565b909155505060008181526004602052604080822080546001600160a01b0319166001600160a01b0386811691821790925591518493918716917fddf252ad1be2c89b69c2b068fc378daa952ba7f163c4a11628f55a4df523b3ef91a4505050565b600080546001600160a01b038381166001600160a01b0319831681178455604051919092169283917f8be0079c531659141344cd1fd0a4f28419497f9722a3daafe3b4186f6b6457e09190a35050565b6001600160a01b0382166115f85760405162461bcd60e51b815260040161064a90612e2e565b61160181611349565b1561161e5760405162461bcd60e51b815260040161064a90612c1d565b61162a600083836119f4565b6001600160a01b0382166000908152600560205260408120805460019290611653908490613119565b909155505060008181526004602052604080822080546001600160a01b0319166001600160a01b03861690811790915590518392907fddf252ad1be2c89b69c2b068fc378daa952ba7f163c4a11628f55a4df523b3ef908290a45050565b6116bc848484611455565b6116c884848484611a7d565b610b6a5760405162461bcd60e51b815260040161064a90612b85565b80516060908061170457505060408051602081019091526000815261058c565b60006003611713836002613119565b61171d9190613131565b61172890600461325c565b90506000611737826020613119565b67ffffffffffffffff81111561175d57634e487b7160e01b600052604160045260246000fd5b6040519080825280601f01601f191660200182016040528015611787576020820181803683370190505b5090506000604051806060016040528060408152602001613357604091399050600181016020830160005b86811015611813576003818a01810151603f601282901c8116860151600c83901c8216870151600684901c831688015192909316870151600891821b60ff94851601821b92841692909201901b91160160e01b8352600490920191016117b2565b50600386066001811461182d576002811461183e5761184a565b613d3d60f01b60011983015261184a565b603d60f81b6000198301525b505050918152949350505050565b60408051808201825260148152733b34b2bba137bc1e91181018101999101999111f60611b6020820152600c54915163a78d070f60e01b8152606092600091611912916001600160a01b03169063a78d070f906118b9908b906004016130b2565b60006040518083038186803b1580156118d157600080fd5b505afa1580156118e5573d6000803e3d6000fd5b505050506040513d6000823e601f3d908101601f1916820160405261190d9190810190612361565b611b95565b9050600061192961192284611b95565b8390611bba565b905061193482611bd4565b600d8860405161194491906126ac565b908152602001604051809103902061195b84611bd4565b600d8960405161196b91906126ac565b908152602001604051809103902061198286611bd4565b600d8a60405161199291906126ac565b90815260200160405180910390206119a988611bd4565b6040516020016119bf9796959493929190612838565b6040516020818303038152906040529350505050949350505050565b6001600160e01b031981166301ffc9a760e01b14919050565b6119ff838383610702565b6001600160a01b038316611a1b57611a1681611c4b565b611a3e565b816001600160a01b0316836001600160a01b031614611a3e57611a3e8382611c8f565b6001600160a01b038216611a5a57611a5581611d2c565b610702565b826001600160a01b0316826001600160a01b031614610702576107028282611e05565b6000611a91846001600160a01b0316611e49565b15611b8d57836001600160a01b031663150b7a02611aad611366565b8786866040518563ffffffff1660e01b8152600401611acf9493929190612a70565b602060405180830381600087803b158015611ae957600080fd5b505af1925050508015611b19575060408051601f3d908101601f19168201909252611b1691810190612345565b60015b611b73573d808015611b47576040519150601f19603f3d011682016040523d82523d6000602084013e611b4c565b606091505b508051611b6b5760405162461bcd60e51b815260040161064a90612b85565b805181602001fd5b6001600160e01b031916630a85bd0160e11b149050611310565b506001611310565b611b9d612123565b506040805180820190915281518152602082810190820152919050565b611bc2612123565b611bcd838383611e4f565b5092915050565b60606000826000015167ffffffffffffffff811115611c0357634e487b7160e01b600052604160045260246000fd5b6040519080825280601f01601f191660200182016040528015611c2d576020820181803683370190505b5090506000602082019050611bcd8185602001518660000151611ef2565b600a80546000838152600b60205260408120829055600182018355919091527fc65a7bb8d6351c1cf70c95a316cc6a92839c986682d98bc35f958f4883f9d2a80155565b60006001611c9c84610989565b611ca6919061327b565b600083815260096020526040902054909150808214611cf9576001600160a01b03841660009081526008602090815260408083208584528252808320548484528184208190558352600990915290208190555b5060009182526009602090815260408084208490556001600160a01b039094168352600881528383209183525290812055565b600a54600090611d3e9060019061327b565b6000838152600b6020526040812054600a8054939450909284908110611d7457634e487b7160e01b600052603260045260246000fd5b9060005260206000200154905080600a8381548110611da357634e487b7160e01b600052603260045260246000fd5b6000918252602080832090910192909255828152600b9091526040808220849055858252812055600a805480611de957634e487b7160e01b600052603160045260246000fd5b6001900381819060005260206000200160009055905550505050565b6000611e1083610989565b6001600160a01b039093166000908152600860209081526040808320868452825280832085905593825260099052919091209190915550565b3b151590565b611e57612123565b6000611e758560000151866020015186600001518760200151611f63565b602080870180519186019190915251909150611e91908261327b565b835284516020860151611ea49190613119565b811415611eb45760008552611ee6565b83518351611ec29190613119565b85518690611ed190839061327b565b9052508351611ee09082613119565b60208601525b829150505b9392505050565b60208110611f2a5781518352611f09602084613119565b9250611f16602083613119565b9150611f2360208261327b565b9050611ef2565b60006001611f3983602061327b565b611f459061010061318e565b611f4f919061327b565b925184518416931916929092179092525050565b6000838186851161206957602085116120175760006001611f8587602061327b565b611f9090600861325c565b611f9b90600261318e565b611fa5919061327b565b8551901991508116600087611fba8b8b613119565b611fc4919061327b565b855190915083165b82811461200957818610611ff157611fe48b8b613119565b9650505050505050611310565b85611ffb816132f9565b965050838651169050611fcc565b859650505050505050611310565b508383206000905b612029868961327b565b821161206757858320818114156120465783945050505050611310565b612051600185613119565b935050818061205f906132f9565b92505061201f565b505b6120738787613119565b979650505050505050565b82805461208a906132be565b90600052602060002090601f0160209004810192826120ac57600085556120f2565b82601f106120c557805160ff19168380011785556120f2565b828001600101855582156120f2579182015b828111156120f25782518255916020019190600101906120d7565b506120fe92915061213d565b5090565b60405180606001604052806060815260200160608152602001606081525090565b604051806040016040528060008152602001600081525090565b5b808211156120fe576000815560010161213e565b6000612165612160846130e5565b6130bb565b905082815283838301111561217957600080fd5b828260208301376000602084830101529392505050565b80356001600160a01b038116811461058c57600080fd5b600082601f8301126121b7578081fd5b611eeb83833560208501612152565b6000602082840312156121d7578081fd5b611eeb82612190565b600080604083850312156121f2578081fd5b6121fb83612190565b915061220960208401612190565b90509250929050565b600080600060608486031215612226578081fd5b61222f84612190565b925061223d60208501612190565b9150604084013590509250925092565b60008060008060808587031215612262578081fd5b61226b85612190565b935061227960208601612190565b925060408501359150606085013567ffffffffffffffff81111561229b578182fd5b8501601f810187136122ab578182fd5b6122ba87823560208401612152565b91505092959194509250565b600080604083850312156122d8578182fd5b6122e183612190565b9150602083013580151581146122f5578182fd5b809150509250929050565b60008060408385031215612312578182fd5b61231b83612190565b946020939093013593505050565b60006020828403121561233a578081fd5b8135611eeb81613340565b600060208284031215612356578081fd5b8151611eeb81613340565b600060208284031215612372578081fd5b815167ffffffffffffffff811115612388578182fd5b8201601f81018413612398578182fd5b80516123a6612160826130e5565b8181528560208385010111156123ba578384fd5b6123cb826020830160208601613292565b95945050505050565b600080604083850312156123e6578182fd5b823567ffffffffffffffff808211156123fd578384fd5b612409868387016121a7565b9350602085013591508082111561241e578283fd5b5061242b858286016121a7565b9150509250929050565b600060208284031215612446578081fd5b5035919050565b60008060008060808587031215612462578081fd5b84359350602085013567ffffffffffffffff80821115612480578283fd5b61248c888389016121a7565b945060408701359150808211156124a1578283fd5b6124ad888389016121a7565b935060608701359150808211156124c2578283fd5b506122ba878288016121a7565b600080600080606085870312156124e4578182fd5b8435935060208501359250604085013567ffffffffffffffff80821115612509578384fd5b818701915087601f83011261251c578384fd5b81358181111561252a578485fd5b88602082850101111561253b578485fd5b95989497505060200194505050565b60008151808452612562816020860160208601613292565b601f01601f19169290920160200192915050565b60008151612588818560208601613292565b9290920192915050565b8054600090600281046001808316806125ac57607f831692505b60208084108214156125cc57634e487b7160e01b86526022600452602486fd5b8180156125e057600181146125f15761261e565b60ff1986168952848901965061261e565b6125fa8861310d565b60005b868110156126165781548b8201529085019083016125fd565b505084890196505b50505050505092915050565b61227d60f01b815260020190565b6b1e17b9bb339f1e17b9bb339f60a11b8152600c0190565b7f3c2f7376673e3c7376672076696577426f783d2230203020333220333222207781527f696474683d22333222206865696768743d2233322220783d2233322220793d226020820152631999111f60e11b604082015260440190565b600082516126be818460208701613292565b9190910192915050565b7403d913730b6b2911d11213634ba36b7b73937b2b99605d1b815282516000906126f9816015850160208801613292565b7f222c20226465736372697074696f6e223a22426c69746d6f6e726f65732061726015918401918201527f65206f6e636861696e20426c69746d61702064657269766174697665732e205460358201527f6f20636f6e7374727563742074686520617274776f726b2c20746865206f726960558201527f67696e616c20426c69746d6170207769746820636f72726573706f6e64696e6760758201527f20746f6b656e20494420697320666574636865642c20636f6c6c61676564206160958201527f6e642066696c746572656420746f2072657475726e2061206d6f64696669656460b58201526c1037b731b430b4b71029ab239760991b60d58201526c1116101134b6b0b3b2911d101160991b60e282015283516128208160ef840160208801613292565b61282e60ef8284010161262a565b9695505050505050565b60007f3c73766720786d6c6e733d22687474703a2f2f7777772e77332e6f72672f323082527f30302f737667222076696577426f783d22302030203634203634223e3c73766760208301527f2076696577426f783d22302030203332203332222077696474683d223332222060408301526b3432b4b3b43a1e911999111f60a11b606083015288516128d181606c850160208d01613292565b7f3c7376672076696577426f783d22302030203332203332222077696474683d22606c918401918201527f333222206865696768743d2233322220783d223332223e000000000000000000608c82015261292e60a382018a612592565b90508751612940818360208c01613292565b7f3c2f7376673e3c7376672076696577426f783d2230203020333220333222207791019081527f696474683d22333222206865696768743d2233322220793d223332223e00000060208201526129c46129bf6129b96129b36129ae6129a8603d87018d612592565b8b612576565b612650565b88612592565b86612576565b612638565b9a9950505050505050505050565b60007f646174613a6170706c69636174696f6e2f6a736f6e3b6261736536342c00000082528251612a0a81601d850160208701613292565b91909101601d0192915050565b60007f646174613a696d6167652f7376672b786d6c3b6261736536342c00000000000082528251612a4f81601a850160208701613292565b91909101601a0192915050565b6001600160a01b0391909116815260200190565b6001600160a01b038581168252841660208201526040810183905260806060820181905260009061282e9083018461254a565b6001600160a01b03929092168252602082015260400190565b6000602080830181845280855180835260408601915060408482028701019250838701855b82811015612b0f57603f19888603018452612afd85835161254a565b94509285019290850190600101612ae1565b5092979650505050505050565b901515815260200190565b600060208252611eeb602083018461254a565b6020808252602b908201527f455243373231456e756d657261626c653a206f776e657220696e646578206f7560408201526a74206f6620626f756e647360a81b606082015260800190565b60208082526032908201527f4552433732313a207472616e7366657220746f206e6f6e20455243373231526560408201527131b2b4bb32b91034b6b83632b6b2b73a32b960711b606082015260800190565b60208082526026908201527f4f776e61626c653a206e6577206f776e657220697320746865207a65726f206160408201526564647265737360d01b606082015260800190565b6020808252601c908201527f4552433732313a20746f6b656e20616c7265616479206d696e74656400000000604082015260600190565b60208082526024908201527f4552433732313a207472616e7366657220746f20746865207a65726f206164646040820152637265737360e01b606082015260800190565b60208082526019908201527f4552433732313a20617070726f766520746f2063616c6c657200000000000000604082015260600190565b6020808252602c908201527f4552433732313a206f70657261746f7220717565727920666f72206e6f6e657860408201526b34b9ba32b73a103a37b5b2b760a11b606082015260800190565b60208082526038908201527f4552433732313a20617070726f76652063616c6c6572206973206e6f74206f7760408201527f6e6572206e6f7220617070726f76656420666f7220616c6c0000000000000000606082015260800190565b6020808252600990820152684d423a75463a34303960b81b604082015260600190565b6020808252602a908201527f4552433732313a2062616c616e636520717565727920666f7220746865207a65604082015269726f206164647265737360b01b606082015260800190565b60208082526029908201527f4552433732313a206f776e657220717565727920666f72206e6f6e657869737460408201526832b73a103a37b5b2b760b91b606082015260800190565b6020808252818101527f4552433732313a206d696e7420746f20746865207a65726f2061646472657373604082015260600190565b6020808252602c908201527f4552433732313a20617070726f76656420717565727920666f72206e6f6e657860408201526b34b9ba32b73a103a37b5b2b760a11b606082015260800190565b6020808252818101527f4f776e61626c653a2063616c6c6572206973206e6f7420746865206f776e6572604082015260600190565b60208082526029908201527f4552433732313a207472616e73666572206f6620746f6b656e2074686174206960408201526839903737ba1037bbb760b91b606082015260800190565b6020808252602f908201527f4552433732314d657461646174613a2055524920717565727920666f72206e6f60408201526e3732bc34b9ba32b73a103a37b5b2b760891b606082015260800190565b60208082526021908201527f4552433732313a20617070726f76616c20746f2063757272656e74206f776e656040820152603960f91b606082015260800190565b60208082526031908201527f4552433732313a207472616e736665722063616c6c6572206973206e6f74206f6040820152701ddb995c881b9bdc88185c1c1c9bdd9959607a1b606082015260800190565b6020808252602c908201527f455243373231456e756d657261626c653a20676c6f62616c20696e646578206f60408201526b7574206f6620626f756e647360a01b606082015260800190565b600060208252825160606020840152613076608084018261254a565b90506020840151601f1980858403016040860152613094838361254a565b92506040860151915080858403016060860152506123cb828261254a565b90815260200190565b60405181810167ffffffffffffffff811182821017156130dd576130dd61332a565b604052919050565b600067ffffffffffffffff8211156130ff576130ff61332a565b50601f01601f191660200190565b60009081526020902090565b6000821982111561312c5761312c613314565b500190565b60008261314c57634e487b7160e01b81526012600452602481fd5b500490565b80825b60018086116131635750610cae565b81870482111561317557613175613314565b8086161561318257918102915b9490941c938002613154565b6000611eeb60001984846000826131a757506001611eeb565b816131b457506000611eeb565b81600181146131ca57600281146131d457613201565b6001915050611eeb565b60ff8411156131e5576131e5613314565b6001841b9150848211156131fb576131fb613314565b50611eeb565b5060208310610133831016604e8410600b8410161715613234575081810a8381111561322f5761322f613314565b611eeb565b6132418484846001613151565b80860482111561325357613253613314565b02949350505050565b600081600019048311821515161561327657613276613314565b500290565b60008282101561328d5761328d613314565b500390565b60005b838110156132ad578181015183820152602001613295565b83811115610b6a5750506000910152565b6002810460018216806132d257607f821691505b602082108114156132f357634e487b7160e01b600052602260045260246000fd5b50919050565b600060001982141561330d5761330d613314565b5060010190565b634e487b7160e01b600052601160045260246000fd5b634e487b7160e01b600052604160045260246000fd5b6001600160e01b03198116811461080257600080fdfe4142434445464748494a4b4c4d4e4f505152535455565758595a6162636465666768696a6b6c6d6e6f707172737475767778797a303132333435363738392b2fa2646970667358221220245f8d01114f9f9bcfb8850323d7ebb4ee934c4ddbe036e2be5e3c2fb0a2d63564736f6c634300080000333c66696c7465722069643d226272696c6c6f223e3c6665436f6c6f724d617472697820747970653d226d6174726978222076616c7565733d223020312e30203020302030203020312e30203020302030203020302e362031203020302030203020302031203020222f3e3c2f66696c7465723e3c7376672066696c7465723d2275726c28236272696c6c6f29223e3c66696c7465722069643d226d6172696c796e223e3c6665436f6c6f724d617472697820747970653d226d6174726978222076616c7565733d22312030203020312e37202d312e3620302031203020302e3020302e33202d302e3720302031203020302e35203020302030203120302e32223e3c2f6665436f6c6f724d61747269783e3c2f66696c7465723e3c7376672066696c7465723d2275726c28236d6172696c796e29223e3c66696c7465722069643d226277223e3c6665436f6c6f724d617472697820747970653d226d6174726978222076616c7565733d2230203120302030203020302031203020302030203020312030203020302030203120302031203020222f3e3c2f66696c7465723e3c7376672066696c7465723d2275726c2823627729223e3c66696c7465722069643d2263616d7062656c6c73223e3c6665436f6c6f724d617472697820747970653d226d6174726978222076616c7565733d22312030203020312e39202d322e3220302031203020302e3020302e33203020302031203020302e35203020302030203120302e32223e3c2f6665436f6c6f724d61747269783e3c2f66696c7465723e3c7376672066696c7465723d2275726c282363616d7062656c6c7329223e3c66696c7465722069643d226563223e3c6665436f6c6f724d617472697820747970653d226d6174726978222076616c7565733d22312030203020302030202d302e3420312e33202d302e3420302e32202d302e312030203020312030203020302030203020312030223e3c2f6665436f6c6f724d61747269783e3c2f66696c7465723e3c7376672066696c7465723d2275726c2823656329223e",
  "devdoc": {
    "kind": "dev",
    "methods": {
      "approve(address,uint256)": {
        "details": "See {IERC721-approve}."
      },
      "balanceOf(address)": {
        "details": "See {IERC721-balanceOf}."
      },
      "getApproved(uint256)": {
        "details": "See {IERC721-getApproved}."
      },
      "isApprovedForAll(address,address)": {
        "details": "See {IERC721-isApprovedForAll}."
      },
      "name()": {
        "details": "See {IERC721Metadata-name}."
      },
      "owner()": {
        "details": "Returns the address of the current owner."
      },
      "ownerOf(uint256)": {
        "details": "See {IERC721-ownerOf}."
      },
      "renounceOwnership()": {
        "details": "Leaves the contract without owner. It will not be possible to call `onlyOwner` functions anymore. Can only be called by the current owner. NOTE: Renouncing ownership will leave the contract without an owner, thereby removing any functionality that is only available to the owner."
      },
      "safeTransferFrom(address,address,uint256)": {
        "details": "See {IERC721-safeTransferFrom}."
      },
      "safeTransferFrom(address,address,uint256,bytes)": {
        "details": "See {IERC721-safeTransferFrom}."
      },
      "setApprovalForAll(address,bool)": {
        "details": "See {IERC721-setApprovalForAll}."
      },
      "symbol()": {
        "details": "See {IERC721Metadata-symbol}."
      },
      "tokenByIndex(uint256)": {
        "details": "See {IERC721Enumerable-tokenByIndex}."
      },
      "tokenOfOwnerByIndex(address,uint256)": {
        "details": "See {IERC721Enumerable-tokenOfOwnerByIndex}."
      },
      "tokenURI(uint256)": {
        "details": "See {IERC721Metadata-tokenURI}."
      },
      "totalSupply()": {
        "details": "See {IERC721Enumerable-totalSupply}."
      },
      "transferFrom(address,address,uint256)": {
        "details": "See {IERC721-transferFrom}."
      },
      "transferOwnership(address)": {
        "details": "Transfers ownership of the contract to a new account (`newOwner`). Can only be called by the current owner."
      }
    },
    "version": 1
  },
  "userdoc": {
    "kind": "user",
    "methods": {},
    "version": 1
  },
  "storageLayout": {
    "storage": [
      {
        "astId": 7,
        "contract": "contracts/Blitpops/Blitpops.sol:Blitpops",
        "label": "_owner",
        "offset": 0,
        "slot": "0",
        "type": "t_address"
      },
      {
        "astId": 2006,
        "contract": "contracts/Blitpops/Blitpops.sol:Blitpops",
        "label": "_supportedInterfaces",
        "offset": 0,
        "slot": "1",
        "type": "t_mapping(t_bytes4,t_bool)"
      },
      {
        "astId": 129,
        "contract": "contracts/Blitpops/Blitpops.sol:Blitpops",
        "label": "_name",
        "offset": 0,
        "slot": "2",
        "type": "t_string_storage"
      },
      {
        "astId": 131,
        "contract": "contracts/Blitpops/Blitpops.sol:Blitpops",
        "label": "_symbol",
        "offset": 0,
        "slot": "3",
        "type": "t_string_storage"
      },
      {
        "astId": 135,
        "contract": "contracts/Blitpops/Blitpops.sol:Blitpops",
        "label": "_owners",
        "offset": 0,
        "slot": "4",
        "type": "t_mapping(t_uint256,t_address)"
      },
      {
        "astId": 139,
        "contract": "contracts/Blitpops/Blitpops.sol:Blitpops",
        "label": "_balances",
        "offset": 0,
        "slot": "5",
        "type": "t_mapping(t_address,t_uint256)"
      },
      {
        "astId": 143,
        "contract": "contracts/Blitpops/Blitpops.sol:Blitpops",
        "label": "_tokenApprovals",
        "offset": 0,
        "slot": "6",
        "type": "t_mapping(t_uint256,t_address)"
      },
      {
        "astId": 149,
        "contract": "contracts/Blitpops/Blitpops.sol:Blitpops",
        "label": "_operatorApprovals",
        "offset": 0,
        "slot": "7",
        "type": "t_mapping(t_address,t_mapping(t_address,t_bool))"
      },
      {
        "astId": 1068,
        "contract": "contracts/Blitpops/Blitpops.sol:Blitpops",
        "label": "_ownedTokens",
        "offset": 0,
        "slot": "8",
        "type": "t_mapping(t_address,t_mapping(t_uint256,t_uint256))"
      },
      {
        "astId": 1072,
        "contract": "contracts/Blitpops/Blitpops.sol:Blitpops",
        "label": "_ownedTokensIndex",
        "offset": 0,
        "slot": "9",
        "type": "t_mapping(t_uint256,t_uint256)"
      },
      {
        "astId": 1075,
        "contract": "contracts/Blitpops/Blitpops.sol:Blitpops",
        "label": "_allTokens",
        "offset": 0,
        "slot": "10",
        "type": "t_array(t_uint256)dyn_storage"
      },
      {
        "astId": 1079,
        "contract": "contracts/Blitpops/Blitpops.sol:Blitpops",
        "label": "_allTokensIndex",
        "offset": 0,
        "slot": "11",
        "type": "t_mapping(t_uint256,t_uint256)"
      },
      {
        "astId": 2146,
        "contract": "contracts/Blitpops/Blitpops.sol:Blitpops",
        "label": "BLITMAP_ADDRESS",
        "offset": 0,
        "slot": "12",
        "type": "t_address"
      },
      {
        "astId": 2150,
        "contract": "contracts/Blitpops/Blitpops.sol:Blitpops",
        "label": "filters",
        "offset": 0,
        "slot": "13",
        "type": "t_mapping(t_string_memory_ptr,t_string_storage)"
      },
      {
        "astId": 2153,
        "contract": "contracts/Blitpops/Blitpops.sol:Blitpops",
        "label": "filterNames",
        "offset": 0,
        "slot": "14",
        "type": "t_array(t_string_storage)dyn_storage"
      },
      {
        "astId": 2165,
        "contract": "contracts/Blitpops/Blitpops.sol:Blitpops",
        "label": "filterMap",
        "offset": 0,
        "slot": "15",
        "type": "t_mapping(t_uint256,t_struct(FilterMatrix)2160_storage)"
      }
    ],
    "types": {
      "t_address": {
        "encoding": "inplace",
        "label": "address",
        "numberOfBytes": "20"
      },
      "t_array(t_string_storage)dyn_storage": {
        "base": "t_string_storage",
        "encoding": "dynamic_array",
        "label": "string[]",
        "numberOfBytes": "32"
      },
      "t_array(t_uint256)dyn_storage": {
        "base": "t_uint256",
        "encoding": "dynamic_array",
        "label": "uint256[]",
        "numberOfBytes": "32"
      },
      "t_bool": {
        "encoding": "inplace",
        "label": "bool",
        "numberOfBytes": "1"
      },
      "t_bytes4": {
        "encoding": "inplace",
        "label": "bytes4",
        "numberOfBytes": "4"
      },
      "t_mapping(t_address,t_bool)": {
        "encoding": "mapping",
        "key": "t_address",
        "label": "mapping(address => bool)",
        "numberOfBytes": "32",
        "value": "t_bool"
      },
      "t_mapping(t_address,t_mapping(t_address,t_bool))": {
        "encoding": "mapping",
        "key": "t_address",
        "label": "mapping(address => mapping(address => bool))",
        "numberOfBytes": "32",
        "value": "t_mapping(t_address,t_bool)"
      },
      "t_mapping(t_address,t_mapping(t_uint256,t_uint256))": {
        "encoding": "mapping",
        "key": "t_address",
        "label": "mapping(address => mapping(uint256 => uint256))",
        "numberOfBytes": "32",
        "value": "t_mapping(t_uint256,t_uint256)"
      },
      "t_mapping(t_address,t_uint256)": {
        "encoding": "mapping",
        "key": "t_address",
        "label": "mapping(address => uint256)",
        "numberOfBytes": "32",
        "value": "t_uint256"
      },
      "t_mapping(t_bytes4,t_bool)": {
        "encoding": "mapping",
        "key": "t_bytes4",
        "label": "mapping(bytes4 => bool)",
        "numberOfBytes": "32",
        "value": "t_bool"
      },
      "t_mapping(t_string_memory_ptr,t_string_storage)": {
        "encoding": "mapping",
        "key": "t_string_memory_ptr",
        "label": "mapping(string => string)",
        "numberOfBytes": "32",
        "value": "t_string_storage"
      },
      "t_mapping(t_uint256,t_address)": {
        "encoding": "mapping",
        "key": "t_uint256",
        "label": "mapping(uint256 => address)",
        "numberOfBytes": "32",
        "value": "t_address"
      },
      "t_mapping(t_uint256,t_struct(FilterMatrix)2160_storage)": {
        "encoding": "mapping",
        "key": "t_uint256",
        "label": "mapping(uint256 => struct Blitpops.FilterMatrix)",
        "numberOfBytes": "32",
        "value": "t_struct(FilterMatrix)2160_storage"
      },
      "t_mapping(t_uint256,t_uint256)": {
        "encoding": "mapping",
        "key": "t_uint256",
        "label": "mapping(uint256 => uint256)",
        "numberOfBytes": "32",
        "value": "t_uint256"
      },
      "t_string_memory_ptr": {
        "encoding": "bytes",
        "label": "string",
        "numberOfBytes": "32"
      },
      "t_string_storage": {
        "encoding": "bytes",
        "label": "string",
        "numberOfBytes": "32"
      },
      "t_struct(FilterMatrix)2160_storage": {
        "encoding": "inplace",
        "label": "struct Blitpops.FilterMatrix",
        "members": [
          {
            "astId": 2155,
            "contract": "contracts/Blitpops/Blitpops.sol:Blitpops",
            "label": "filter1",
            "offset": 0,
            "slot": "0",
            "type": "t_string_storage"
          },
          {
            "astId": 2157,
            "contract": "contracts/Blitpops/Blitpops.sol:Blitpops",
            "label": "filter2",
            "offset": 0,
            "slot": "1",
            "type": "t_string_storage"
          },
          {
            "astId": 2159,
            "contract": "contracts/Blitpops/Blitpops.sol:Blitpops",
            "label": "filter3",
            "offset": 0,
            "slot": "2",
            "type": "t_string_storage"
          }
        ],
        "numberOfBytes": "96"
      },
      "t_uint256": {
        "encoding": "inplace",
        "label": "uint256",
        "numberOfBytes": "32"
      }
    }
  }
}