{
  "address": "0xb53603B4677a26aEF0471F87A70a47Be6AA2F136",
  "abi": [
    {
      "inputs": [
        {
          "internalType": "address",
          "name": "blitmapAddress",
          "type": "address"
        }
      ],
      "stateMutability": "payable",
      "type": "constructor"
    },
    {
      "anonymous": false,
      "inputs": [
        {
          "indexed": true,
          "internalType": "address",
          "name": "owner",
          "type": "address"
        },
        {
          "indexed": true,
          "internalType": "address",
          "name": "approved",
          "type": "address"
        },
        {
          "indexed": true,
          "internalType": "uint256",
          "name": "tokenId",
          "type": "uint256"
        }
      ],
      "name": "Approval",
      "type": "event"
    },
    {
      "anonymous": false,
      "inputs": [
        {
          "indexed": true,
          "internalType": "address",
          "name": "owner",
          "type": "address"
        },
        {
          "indexed": true,
          "internalType": "address",
          "name": "operator",
          "type": "address"
        },
        {
          "indexed": false,
          "internalType": "bool",
          "name": "approved",
          "type": "bool"
        }
      ],
      "name": "ApprovalForAll",
      "type": "event"
    },
    {
      "anonymous": false,
      "inputs": [
        {
          "indexed": true,
          "internalType": "address",
          "name": "previousOwner",
          "type": "address"
        },
        {
          "indexed": true,
          "internalType": "address",
          "name": "newOwner",
          "type": "address"
        }
      ],
      "name": "OwnershipTransferred",
      "type": "event"
    },
    {
      "anonymous": false,
      "inputs": [
        {
          "indexed": true,
          "internalType": "address",
          "name": "from",
          "type": "address"
        },
        {
          "indexed": true,
          "internalType": "address",
          "name": "to",
          "type": "address"
        },
        {
          "indexed": true,
          "internalType": "uint256",
          "name": "tokenId",
          "type": "uint256"
        }
      ],
      "name": "Transfer",
      "type": "event"
    },
    {
      "inputs": [],
      "name": "BLITMAP_ADDRESS",
      "outputs": [
        {
          "internalType": "address",
          "name": "",
          "type": "address"
        }
      ],
      "stateMutability": "view",
      "type": "function"
    },
    {
      "inputs": [],
      "name": "MINT_PRICE",
      "outputs": [
        {
          "internalType": "uint256",
          "name": "",
          "type": "uint256"
        }
      ],
      "stateMutability": "view",
      "type": "function"
    },
    {
      "inputs": [],
      "name": "ROYALTY_AMOUNT",
      "outputs": [
        {
          "internalType": "uint256",
          "name": "",
          "type": "uint256"
        }
      ],
      "stateMutability": "view",
      "type": "function"
    },
    {
      "inputs": [
        {
          "internalType": "string",
          "name": "name",
          "type": "string"
        },
        {
          "internalType": "string",
          "name": "filter",
          "type": "string"
        }
      ],
      "name": "addFilter",
      "outputs": [],
      "stateMutability": "nonpayable",
      "type": "function"
    },
    {
      "inputs": [
        {
          "internalType": "address",
          "name": "to",
          "type": "address"
        },
        {
          "internalType": "uint256",
          "name": "tokenId",
          "type": "uint256"
        }
      ],
      "name": "approve",
      "outputs": [],
      "stateMutability": "nonpayable",
      "type": "function"
    },
    {
      "inputs": [
        {
          "internalType": "address",
          "name": "owner",
          "type": "address"
        }
      ],
      "name": "balanceOf",
      "outputs": [
        {
          "internalType": "uint256",
          "name": "",
          "type": "uint256"
        }
      ],
      "stateMutability": "view",
      "type": "function"
    },
    {
      "inputs": [
        {
          "internalType": "uint256",
          "name": "tokenId",
          "type": "uint256"
        }
      ],
      "name": "getApproved",
      "outputs": [
        {
          "internalType": "address",
          "name": "",
          "type": "address"
        }
      ],
      "stateMutability": "view",
      "type": "function"
    },
    {
      "inputs": [
        {
          "internalType": "address",
          "name": "owner",
          "type": "address"
        },
        {
          "internalType": "address",
          "name": "operator",
          "type": "address"
        }
      ],
      "name": "isApprovedForAll",
      "outputs": [
        {
          "internalType": "bool",
          "name": "",
          "type": "bool"
        }
      ],
      "stateMutability": "view",
      "type": "function"
    },
    {
      "inputs": [],
      "name": "listFilters",
      "outputs": [
        {
          "internalType": "string[]",
          "name": "",
          "type": "string[]"
        }
      ],
      "stateMutability": "view",
      "type": "function"
    },
    {
      "inputs": [],
      "name": "name",
      "outputs": [
        {
          "internalType": "string",
          "name": "",
          "type": "string"
        }
      ],
      "stateMutability": "view",
      "type": "function"
    },
    {
      "inputs": [],
      "name": "owner",
      "outputs": [
        {
          "internalType": "address",
          "name": "",
          "type": "address"
        }
      ],
      "stateMutability": "view",
      "type": "function"
    },
    {
      "inputs": [
        {
          "internalType": "uint256",
          "name": "tokenId",
          "type": "uint256"
        },
        {
          "internalType": "string",
          "name": "filter1",
          "type": "string"
        },
        {
          "internalType": "string",
          "name": "filter2",
          "type": "string"
        },
        {
          "internalType": "string",
          "name": "filter3",
          "type": "string"
        }
      ],
      "name": "ownerMint",
      "outputs": [],
      "stateMutability": "payable",
      "type": "function"
    },
    {
      "inputs": [
        {
          "internalType": "uint256",
          "name": "tokenId",
          "type": "uint256"
        }
      ],
      "name": "ownerOf",
      "outputs": [
        {
          "internalType": "address",
          "name": "",
          "type": "address"
        }
      ],
      "stateMutability": "view",
      "type": "function"
    },
    {
      "inputs": [],
      "name": "renounceOwnership",
      "outputs": [],
      "stateMutability": "nonpayable",
      "type": "function"
    },
    {
      "inputs": [
        {
          "internalType": "uint256",
          "name": "tokenId",
          "type": "uint256"
        },
        {
          "internalType": "uint256",
          "name": "value",
          "type": "uint256"
        },
        {
          "internalType": "bytes",
          "name": "_data",
          "type": "bytes"
        }
      ],
      "name": "royaltyInfo",
      "outputs": [
        {
          "internalType": "address",
          "name": "_receiver",
          "type": "address"
        },
        {
          "internalType": "uint256",
          "name": "royaltyAmount",
          "type": "uint256"
        }
      ],
      "stateMutability": "view",
      "type": "function"
    },
    {
      "inputs": [
        {
          "internalType": "address",
          "name": "from",
          "type": "address"
        },
        {
          "internalType": "address",
          "name": "to",
          "type": "address"
        },
        {
          "internalType": "uint256",
          "name": "tokenId",
          "type": "uint256"
        }
      ],
      "name": "safeTransferFrom",
      "outputs": [],
      "stateMutability": "nonpayable",
      "type": "function"
    },
    {
      "inputs": [
        {
          "internalType": "address",
          "name": "from",
          "type": "address"
        },
        {
          "internalType": "address",
          "name": "to",
          "type": "address"
        },
        {
          "internalType": "uint256",
          "name": "tokenId",
          "type": "uint256"
        },
        {
          "internalType": "bytes",
          "name": "_data",
          "type": "bytes"
        }
      ],
      "name": "safeTransferFrom",
      "outputs": [],
      "stateMutability": "nonpayable",
      "type": "function"
    },
    {
      "inputs": [
        {
          "internalType": "address",
          "name": "operator",
          "type": "address"
        },
        {
          "internalType": "bool",
          "name": "approved",
          "type": "bool"
        }
      ],
      "name": "setApprovalForAll",
      "outputs": [],
      "stateMutability": "nonpayable",
      "type": "function"
    },
    {
      "inputs": [
        {
          "internalType": "bytes4",
          "name": "interfaceId",
          "type": "bytes4"
        }
      ],
      "name": "supportsInterface",
      "outputs": [
        {
          "internalType": "bool",
          "name": "",
          "type": "bool"
        }
      ],
      "stateMutability": "view",
      "type": "function"
    },
    {
      "inputs": [
        {
          "internalType": "uint256",
          "name": "tokenId",
          "type": "uint256"
        },
        {
          "internalType": "string",
          "name": "filter1",
          "type": "string"
        },
        {
          "internalType": "string",
          "name": "filter2",
          "type": "string"
        },
        {
          "internalType": "string",
          "name": "filter3",
          "type": "string"
        }
      ],
      "name": "svgBase64Data",
      "outputs": [
        {
          "internalType": "string",
          "name": "",
          "type": "string"
        }
      ],
      "stateMutability": "view",
      "type": "function"
    },
    {
      "inputs": [],
      "name": "symbol",
      "outputs": [
        {
          "internalType": "string",
          "name": "",
          "type": "string"
        }
      ],
      "stateMutability": "view",
      "type": "function"
    },
    {
      "inputs": [
        {
          "internalType": "uint256",
          "name": "index",
          "type": "uint256"
        }
      ],
      "name": "tokenByIndex",
      "outputs": [
        {
          "internalType": "uint256",
          "name": "",
          "type": "uint256"
        }
      ],
      "stateMutability": "view",
      "type": "function"
    },
    {
      "inputs": [
        {
          "internalType": "address",
          "name": "owner",
          "type": "address"
        },
        {
          "internalType": "uint256",
          "name": "index",
          "type": "uint256"
        }
      ],
      "name": "tokenOfOwnerByIndex",
      "outputs": [
        {
          "internalType": "uint256",
          "name": "",
          "type": "uint256"
        }
      ],
      "stateMutability": "view",
      "type": "function"
    },
    {
      "inputs": [
        {
          "internalType": "uint256",
          "name": "tokenId",
          "type": "uint256"
        }
      ],
      "name": "tokenURI",
      "outputs": [
        {
          "internalType": "string",
          "name": "",
          "type": "string"
        }
      ],
      "stateMutability": "view",
      "type": "function"
    },
    {
      "inputs": [],
      "name": "totalSupply",
      "outputs": [
        {
          "internalType": "uint256",
          "name": "",
          "type": "uint256"
        }
      ],
      "stateMutability": "view",
      "type": "function"
    },
    {
      "inputs": [
        {
          "internalType": "address",
          "name": "from",
          "type": "address"
        },
        {
          "internalType": "address",
          "name": "to",
          "type": "address"
        },
        {
          "internalType": "uint256",
          "name": "tokenId",
          "type": "uint256"
        }
      ],
      "name": "transferFrom",
      "outputs": [],
      "stateMutability": "nonpayable",
      "type": "function"
    },
    {
      "inputs": [
        {
          "internalType": "address",
          "name": "newOwner",
          "type": "address"
        }
      ],
      "name": "transferOwnership",
      "outputs": [],
      "stateMutability": "nonpayable",
      "type": "function"
    },
    {
      "inputs": [
        {
          "internalType": "uint256",
          "name": "tokenId",
          "type": "uint256"
        },
        {
          "internalType": "string",
          "name": "filter1",
          "type": "string"
        },
        {
          "internalType": "string",
          "name": "filter2",
          "type": "string"
        },
        {
          "internalType": "string",
          "name": "filter3",
          "type": "string"
        }
      ],
      "name": "updateFilters",
      "outputs": [],
      "stateMutability": "nonpayable",
      "type": "function"
    }
  ],
  "transactionHash": "0x9dbb63d9208082f2423d79acee49b0a8e3d961e70b07b9b65f9cefeae6b3c895",
  "args": [
    "0xf6A56f5B9cff7f84320C85C71Cac94092d3CD424"
  ],
  "solcInputHash": "8db05361f33fe9f8e5740acb8a81d5d9",
  "bytecode": "0x608060405260405162003aa638038062003aa68339810160408190526200002691620005d4565b6040518060400160405280600b81526020016a426c69746d6f6e726f657360a81b81525060405180604001604052806007815260200166212624aa26a7a760c91b815250620000846200007e620003b660201b60201c565b620003ba565b81516200009990600290602085019062000468565b508051620000af90600390602084019062000468565b50620000c6915063c155531d60e01b90506200040a565b600c80546001600160a01b0319166001600160a01b03831617905560408051808201825260058152641e39bb339f60d91b60208201529051600d906200010c9062000667565b908152602001604051809103902090805190602001906200012f92919062000468565b506040518060e0016040528060a981526020016200396260a99139600d6040516200015a9062000652565b908152602001604051809103902090805190602001906200017d92919062000468565b506040518060c00160405280609b815260200162003a0b609b9139600d604051620001a89062000626565b90815260200160405180910390209080519060200190620001cb92919062000468565b506040518060e0016040528060a881526020016200383a60a89139600d604051620001f69062000604565b908152602001604051809103902090805190602001906200021992919062000468565b506040518060c00160405280608e8152602001620037ac608e9139600d604051620002449062000640565b908152602001604051809103902090805190602001906200026792919062000468565b506040518060a0016040528060808152602001620038e260809139600d604051620002929062000617565b90815260200160405180910390209080519060200190620002b592919062000468565b506040518060c00160405280604051806040016040528060028152602001616f6760f01b81525081526020016040518060400160405280600981526020016863616d7062656c6c7360b81b81525081526020016040518060400160405280600e81526020016d32b632b1ba3934b196b1b430b4b960911b81525081526020016040518060400160405280600781526020016636b0b934b63cb760c91b8152508152602001604051806040016040528060068152602001656272696c6c6f60d01b81525081526020016040518060400160405280600381526020016262267760e81b815250815250600e906006620003ae929190620004f7565b5050620006e9565b3390565b600080546001600160a01b038381166001600160a01b0319831681178455604051919092169283917f8be0079c531659141344cd1fd0a4f28419497f9722a3daafe3b4186f6b6457e09190a35050565b6001600160e01b03198082161415620004405760405162461bcd60e51b8152600401620004379062000675565b60405180910390fd5b6001600160e01b0319166000908152600160208190526040909120805460ff19169091179055565b8280546200047690620006ac565b90600052602060002090601f0160209004810192826200049a5760008555620004e5565b82601f10620004b557805160ff1916838001178555620004e5565b82800160010185558215620004e5579182015b82811115620004e5578251825591602001919060010190620004c8565b50620004f392915062000557565b5090565b82805482825590600052602060002090810192821562000549579160200282015b828111156200054957825180516200053891849160209091019062000468565b509160200191906001019062000518565b50620004f39291506200056e565b5b80821115620004f3576000815560010162000558565b80821115620004f35760006200058582826200058f565b506001016200056e565b5080546200059d90620006ac565b6000825580601f10620005b15750620005d1565b601f016020900490600052602060002090810190620005d1919062000557565b50565b600060208284031215620005e6578081fd5b81516001600160a01b0381168114620005fd578182fd5b9392505050565b6636b0b934b63cb760c91b815260070190565b6262267760e81b815260030190565b6d32b632b1ba3934b196b1b430b4b960911b8152600e0190565b656272696c6c6f60d01b815260060190565b6863616d7062656c6c7360b81b815260090190565b616f6760f01b815260020190565b6020808252601c908201527f4552433136353a20696e76616c696420696e7465726661636520696400000000604082015260600190565b600281046001821680620006c157607f821691505b60208210811415620006e357634e487b7160e01b600052602260045260246000fd5b50919050565b6130b380620006f96000396000f3fe6080604052600436106101b75760003560e01c80639143bafc116100ec578063c155531d1161008a578063e985e9c511610064578063e985e9c5146104a6578063f22998a8146104c6578063f2fde38b146104e6578063fc194cf614610506576101b7565b8063c155531d14610443578063c87b56dd14610471578063d9f7ce8214610491576101b7565b8063a22cb465116100c6578063a22cb465146103d9578063b2c75172146103f9578063b88d4fde1461040e578063c002d23d1461042e576101b7565b80639143bafc1461039157806395d89b41146103b1578063a13170e8146103c6576101b7565b806342842e0e116101595780636352211e116101335780636352211e1461032757806370a0823114610347578063715018a6146103675780638da5cb5b1461037c576101b7565b806342842e0e146102c55780634f6ccce7146102e557806350a1151d14610305576101b7565b8063095ea7b311610195578063095ea7b31461024157806318160ddd1461026357806323b872dd146102855780632f745c59146102a5576101b7565b806301ffc9a7146101bc57806306fdde03146101f2578063081812fc14610214575b600080fd5b3480156101c857600080fd5b506101dc6101d7366004612068565b610526565b6040516101e9919061285b565b60405180910390f35b3480156101fe57600080fd5b50610207610539565b6040516101e99190612866565b34801561022057600080fd5b5061023461022f366004612174565b6105cb565b6040516101e9919061279b565b34801561024d57600080fd5b5061026161025c36600461203f565b610617565b005b34801561026f57600080fd5b506102786106af565b6040516101e99190612d99565b34801561029157600080fd5b506102616102a0366004611f51565b6106b5565b3480156102b157600080fd5b506102786102c036600461203f565b6106ed565b3480156102d157600080fd5b506102616102e0366004611f51565b61073f565b3480156102f157600080fd5b50610278610300366004612174565b61075a565b34801561031157600080fd5b5061031a6107b5565b6040516101e991906127fb565b34801561033357600080fd5b50610234610342366004612174565b61088e565b34801561035357600080fd5b50610278610362366004611f05565b6108c3565b34801561037357600080fd5b50610261610907565b34801561038857600080fd5b50610234610952565b34801561039d57600080fd5b506102616103ac36600461218c565b610961565b3480156103bd57600080fd5b50610207610a15565b6102616103d436600461218c565b610a24565b3480156103e557600080fd5b506102616103f4366004612005565b610aaa565b34801561040557600080fd5b50610278610b78565b34801561041a57600080fd5b50610261610429366004611f8c565b610b7d565b34801561043a57600080fd5b50610278610bb6565b34801561044f57600080fd5b5061046361045e36600461220e565b610bc1565b6040516101e99291906127e2565b34801561047d57600080fd5b5061020761048c366004612174565b610bf1565b34801561049d57600080fd5b50610234610ed5565b3480156104b257600080fd5b506101dc6104c1366004611f1f565b610ee4565b3480156104d257600080fd5b506102616104e1366004612113565b610f12565b3480156104f257600080fd5b50610261610501366004611f05565b610fc7565b34801561051257600080fd5b5061020761052136600461218c565b611038565b600061053182611078565b90505b919050565b60606002805461054890612fa5565b80601f016020809104026020016040519081016040528092919081815260200182805461057490612fa5565b80156105c15780601f10610596576101008083540402835291602001916105c1565b820191906000526020600020905b8154815290600101906020018083116105a457829003601f168201915b5050505050905090565b60006105d6826110a9565b6105fb5760405162461bcd60e51b81526004016105f290612ba2565b60405180910390fd5b506000908152600660205260409020546001600160a01b031690565b60006106228261088e565b9050806001600160a01b0316836001600160a01b031614156106565760405162461bcd60e51b81526004016105f290612cbb565b806001600160a01b03166106686110c6565b6001600160a01b031614806106845750610684816104c16110c6565b6106a05760405162461bcd60e51b81526004016105f290612a5a565b6106aa83836110ca565b505050565b600a5490565b6106c66106c06110c6565b82611138565b6106e25760405162461bcd60e51b81526004016105f290612cfc565b6106aa8383836111b5565b60006106f8836108c3565b82106107165760405162461bcd60e51b81526004016105f290612879565b506001600160a01b03919091166000908152600860209081526040808320938352929052205490565b6106aa83838360405180602001604052806000815250610b7d565b60006107646106af565b82106107825760405162461bcd60e51b81526004016105f290612d4d565b600a82815481106107a357634e487b7160e01b600052603260045260246000fd5b90600052602060002001549050919050565b6060600e805480602002602001604051908101604052809291908181526020016000905b828210156108855783829060005260206000200180546107f890612fa5565b80601f016020809104026020016040519081016040528092919081815260200182805461082490612fa5565b80156108715780601f1061084657610100808354040283529160200191610871565b820191906000526020600020905b81548152906001019060200180831161085457829003601f168201915b5050505050815260200190600101906107d9565b50505050905090565b6000818152600460205260408120546001600160a01b0316806105315760405162461bcd60e51b81526004016105f290612b24565b60006001600160a01b0382166108eb5760405162461bcd60e51b81526004016105f290612ada565b506001600160a01b031660009081526005602052604090205490565b61090f6110c6565b6001600160a01b0316610920610952565b6001600160a01b0316146109465760405162461bcd60e51b81526004016105f290612bee565b61095060006112e2565b565b6000546001600160a01b031690565b61096a8461088e565b6001600160a01b0316336001600160a01b03161461099a5760405162461bcd60e51b81526004016105f290612ab7565b6040805160608101825284815260208082018590528183018490526000878152600f82529290922081518051929391926109d79284920190611dde565b5060208281015180516109f09260018501920190611dde565b5060408201518051610a0c916002840191602090910190611dde565b50505050505050565b60606003805461054890612fa5565b6040805160608101825284815260208082018590528183018490526000878152600f8252929092208151805192939192610a619284920190611dde565b506020828101518051610a7a9260018501920190611dde565b5060408201518051610a96916002840191602090910190611dde565b50905050610aa43385611332565b50505050565b610ab26110c6565b6001600160a01b0316826001600160a01b03161415610ae35760405162461bcd60e51b81526004016105f2906129d7565b8060076000610af06110c6565b6001600160a01b03908116825260208083019390935260409182016000908120918716808252919093529120805460ff191692151592909217909155610b346110c6565b6001600160a01b03167f17307eab39ab6107e8899845ad3d59bd9653f200f220920489ca2b5937696c3183604051610b6c919061285b565b60405180910390a35050565b600a81565b610b8e610b886110c6565b83611138565b610baa5760405162461bcd60e51b81526004016105f290612cfc565b610aa484848484611411565b66470de4df82000081565b6000806064610bd1600a87612f43565b610bdb9190612e18565b9050610be5610952565b91505b94509492505050565b6060610bfc826110a9565b610c185760405162461bcd60e51b81526004016105f290612c6c565b6000828152600f6020526040808220815160608101909252805482908290610c3f90612fa5565b80601f0160208091040260200160405190810160405280929190818152602001828054610c6b90612fa5565b8015610cb85780601f10610c8d57610100808354040283529160200191610cb8565b820191906000526020600020905b815481529060010190602001808311610c9b57829003601f168201915b50505050508152602001600182018054610cd190612fa5565b80601f0160208091040260200160405190810160405280929190818152602001828054610cfd90612fa5565b8015610d4a5780601f10610d1f57610100808354040283529160200191610d4a565b820191906000526020600020905b815481529060010190602001808311610d2d57829003601f168201915b50505050508152602001600282018054610d6390612fa5565b80601f0160208091040260200160405190810160405280929190818152602001828054610d8f90612fa5565b8015610ddc5780601f10610db157610100808354040283529160200191610ddc565b820191906000526020600020905b815481529060010190602001808311610dbf57829003601f168201915b505050919092525050600c546040516338c9319960e21b8152929350610eae926001600160a01b03909116915063e324c66490610e1d908790600401612d99565b60006040518083038186803b158015610e3557600080fd5b505afa158015610e49573d6000803e3d6000fd5b505050506040513d6000823e601f3d908101601f19168201604052610e7191908101906120a0565b610e8985846000015185602001518660400151611038565b604051602001610e9a929190612407565b604051602081830303815290604052611444565b604051602001610ebe9190612711565b604051602081830303815290604052915050919050565b600c546001600160a01b031681565b6001600160a01b03918216600090815260076020908152604080832093909416825291909152205460ff1690565b610f1a6110c6565b6001600160a01b0316610f2b610952565b6001600160a01b031614610f515760405162461bcd60e51b81526004016105f290612bee565b600e80546001810182556000919091528251610f94917fbb7b4a454dc3493923482f07822329ed19e8244eff582cc204f8554c3620c3fd01906020850190611dde565b5080600d83604051610fa691906123eb565b908152602001604051809103902090805190602001906106aa929190611dde565b610fcf6110c6565b6001600160a01b0316610fe0610952565b6001600160a01b0316146110065760405162461bcd60e51b81526004016105f290612bee565b6001600160a01b03811661102c5760405162461bcd60e51b81526004016105f290612916565b611035816112e2565b50565b606061104e611049868686866115b8565b611444565b60405160200161105e9190612756565b60405160208183030381529060405290505b949350505050565b60006110838261173b565b806105315750506001600160e01b03191660009081526001602052604090205460ff1690565b6000908152600460205260409020546001600160a01b0316151590565b3390565b600081815260066020526040902080546001600160a01b0319166001600160a01b03841690811790915581906110ff8261088e565b6001600160a01b03167f8c5be1e5ebec7d5bd14f71427d1e84f3dd0314c0f7b2291e5b200ac8c7c3b92560405160405180910390a45050565b6000611143826110a9565b61115f5760405162461bcd60e51b81526004016105f290612a0e565b600061116a8361088e565b9050806001600160a01b0316846001600160a01b031614806111a55750836001600160a01b031661119a846105cb565b6001600160a01b0316145b8061107057506110708185610ee4565b826001600160a01b03166111c88261088e565b6001600160a01b0316146111ee5760405162461bcd60e51b81526004016105f290612c23565b6001600160a01b0382166112145760405162461bcd60e51b81526004016105f290612993565b61121f838383611754565b61122a6000826110ca565b6001600160a01b0383166000908152600560205260408120805460019290611253908490612f62565b90915550506001600160a01b0382166000908152600560205260408120805460019290611281908490612e00565b909155505060008181526004602052604080822080546001600160a01b0319166001600160a01b0386811691821790925591518493918716917fddf252ad1be2c89b69c2b068fc378daa952ba7f163c4a11628f55a4df523b3ef91a4505050565b600080546001600160a01b038381166001600160a01b0319831681178455604051919092169283917f8be0079c531659141344cd1fd0a4f28419497f9722a3daafe3b4186f6b6457e09190a35050565b6001600160a01b0382166113585760405162461bcd60e51b81526004016105f290612b6d565b611361816110a9565b1561137e5760405162461bcd60e51b81526004016105f29061295c565b61138a60008383611754565b6001600160a01b03821660009081526005602052604081208054600192906113b3908490612e00565b909155505060008181526004602052604080822080546001600160a01b0319166001600160a01b03861690811790915590518392907fddf252ad1be2c89b69c2b068fc378daa952ba7f163c4a11628f55a4df523b3ef908290a45050565b61141c8484846111b5565b611428848484846117dd565b610aa45760405162461bcd60e51b81526004016105f2906128c4565b805160609080611464575050604080516020810190915260008152610534565b60006003611473836002612e00565b61147d9190612e18565b611488906004612f43565b90506000611497826020612e00565b67ffffffffffffffff8111156114bd57634e487b7160e01b600052604160045260246000fd5b6040519080825280601f01601f1916602001820160405280156114e7576020820181803683370190505b509050600060405180606001604052806040815260200161303e604091399050600181016020830160005b86811015611573576003818a01810151603f601282901c8116860151600c83901c8216870151600684901c831688015192909316870151600891821b60ff94851601821b92841692909201901b91160160e01b835260049092019101611512565b50600386066001811461158d576002811461159e576115aa565b613d3d60f01b6001198301526115aa565b603d60f81b6000198301525b505050918152949350505050565b60408051808201825260148152733b34b2bba137bc1e91181018101999101999111f60611b6020820152600c54915163a78d070f60e01b8152606092600091611672916001600160a01b03169063a78d070f90611619908b90600401612d99565b60006040518083038186803b15801561163157600080fd5b505afa158015611645573d6000803e3d6000fd5b505050506040513d6000823e601f3d908101601f1916820160405261166d91908101906120a0565b6118f5565b90506000611689611682846118f5565b839061191a565b905061169482611934565b600d886040516116a491906123eb565b90815260200160405180910390206116bb84611934565b600d896040516116cb91906123eb565b90815260200160405180910390206116e286611934565b600d8a6040516116f291906123eb565b908152602001604051809103902061170988611934565b60405160200161171f9796959493929190612577565b6040516020818303038152906040529350505050949350505050565b6001600160e01b031981166301ffc9a760e01b14919050565b61175f8383836106aa565b6001600160a01b03831661177b57611776816119ab565b61179e565b816001600160a01b0316836001600160a01b03161461179e5761179e83826119ef565b6001600160a01b0382166117ba576117b581611a8c565b6106aa565b826001600160a01b0316826001600160a01b0316146106aa576106aa8282611b65565b60006117f1846001600160a01b0316611ba9565b156118ed57836001600160a01b031663150b7a0261180d6110c6565b8786866040518563ffffffff1660e01b815260040161182f94939291906127af565b602060405180830381600087803b15801561184957600080fd5b505af1925050508015611879575060408051601f3d908101601f1916820190925261187691810190612084565b60015b6118d3573d8080156118a7576040519150601f19603f3d011682016040523d82523d6000602084013e6118ac565b606091505b5080516118cb5760405162461bcd60e51b81526004016105f2906128c4565b805181602001fd5b6001600160e01b031916630a85bd0160e11b149050611070565b506001611070565b6118fd611e62565b506040805180820190915281518152602082810190820152919050565b611922611e62565b61192d838383611baf565b5092915050565b60606000826000015167ffffffffffffffff81111561196357634e487b7160e01b600052604160045260246000fd5b6040519080825280601f01601f19166020018201604052801561198d576020820181803683370190505b509050600060208201905061192d8185602001518660000151611c52565b600a80546000838152600b60205260408120829055600182018355919091527fc65a7bb8d6351c1cf70c95a316cc6a92839c986682d98bc35f958f4883f9d2a80155565b600060016119fc846108c3565b611a069190612f62565b600083815260096020526040902054909150808214611a59576001600160a01b03841660009081526008602090815260408083208584528252808320548484528184208190558352600990915290208190555b5060009182526009602090815260408084208490556001600160a01b039094168352600881528383209183525290812055565b600a54600090611a9e90600190612f62565b6000838152600b6020526040812054600a8054939450909284908110611ad457634e487b7160e01b600052603260045260246000fd5b9060005260206000200154905080600a8381548110611b0357634e487b7160e01b600052603260045260246000fd5b6000918252602080832090910192909255828152600b9091526040808220849055858252812055600a805480611b4957634e487b7160e01b600052603160045260246000fd5b6001900381819060005260206000200160009055905550505050565b6000611b70836108c3565b6001600160a01b039093166000908152600860209081526040808320868452825280832085905593825260099052919091209190915550565b3b151590565b611bb7611e62565b6000611bd58560000151866020015186600001518760200151611cc3565b602080870180519186019190915251909150611bf19082612f62565b835284516020860151611c049190612e00565b811415611c145760008552611c46565b83518351611c229190612e00565b85518690611c31908390612f62565b9052508351611c409082612e00565b60208601525b829150505b9392505050565b60208110611c8a5781518352611c69602084612e00565b9250611c76602083612e00565b9150611c83602082612f62565b9050611c52565b60006001611c99836020612f62565b611ca590610100612e75565b611caf9190612f62565b925184518416931916929092179092525050565b60008381868511611dc95760208511611d775760006001611ce5876020612f62565b611cf0906008612f43565b611cfb906002612e75565b611d059190612f62565b8551901991508116600087611d1a8b8b612e00565b611d249190612f62565b855190915083165b828114611d6957818610611d5157611d448b8b612e00565b9650505050505050611070565b85611d5b81612fe0565b965050838651169050611d2c565b859650505050505050611070565b508383206000905b611d898689612f62565b8211611dc75785832081811415611da65783945050505050611070565b611db1600185612e00565b9350508180611dbf90612fe0565b925050611d7f565b505b611dd38787612e00565b979650505050505050565b828054611dea90612fa5565b90600052602060002090601f016020900481019282611e0c5760008555611e52565b82601f10611e2557805160ff1916838001178555611e52565b82800160010185558215611e52579182015b82811115611e52578251825591602001919060010190611e37565b50611e5e929150611e7c565b5090565b604051806040016040528060008152602001600081525090565b5b80821115611e5e5760008155600101611e7d565b6000611ea4611e9f84612dcc565b612da2565b9050828152838383011115611eb857600080fd5b828260208301376000602084830101529392505050565b80356001600160a01b038116811461053457600080fd5b600082601f830112611ef6578081fd5b611c4b83833560208501611e91565b600060208284031215611f16578081fd5b611c4b82611ecf565b60008060408385031215611f31578081fd5b611f3a83611ecf565b9150611f4860208401611ecf565b90509250929050565b600080600060608486031215611f65578081fd5b611f6e84611ecf565b9250611f7c60208501611ecf565b9150604084013590509250925092565b60008060008060808587031215611fa1578081fd5b611faa85611ecf565b9350611fb860208601611ecf565b925060408501359150606085013567ffffffffffffffff811115611fda578182fd5b8501601f81018713611fea578182fd5b611ff987823560208401611e91565b91505092959194509250565b60008060408385031215612017578182fd5b61202083611ecf565b915060208301358015158114612034578182fd5b809150509250929050565b60008060408385031215612051578182fd5b61205a83611ecf565b946020939093013593505050565b600060208284031215612079578081fd5b8135611c4b81613027565b600060208284031215612095578081fd5b8151611c4b81613027565b6000602082840312156120b1578081fd5b815167ffffffffffffffff8111156120c7578182fd5b8201601f810184136120d7578182fd5b80516120e5611e9f82612dcc565b8181528560208385010111156120f9578384fd5b61210a826020830160208601612f79565b95945050505050565b60008060408385031215612125578182fd5b823567ffffffffffffffff8082111561213c578384fd5b61214886838701611ee6565b9350602085013591508082111561215d578283fd5b5061216a85828601611ee6565b9150509250929050565b600060208284031215612185578081fd5b5035919050565b600080600080608085870312156121a1578081fd5b84359350602085013567ffffffffffffffff808211156121bf578283fd5b6121cb88838901611ee6565b945060408701359150808211156121e0578283fd5b6121ec88838901611ee6565b93506060870135915080821115612201578283fd5b50611ff987828801611ee6565b60008060008060608587031215612223578182fd5b8435935060208501359250604085013567ffffffffffffffff80821115612248578384fd5b818701915087601f83011261225b578384fd5b813581811115612269578485fd5b88602082850101111561227a578485fd5b95989497505060200194505050565b600081518084526122a1816020860160208601612f79565b601f01601f19169290920160200192915050565b600081516122c7818560208601612f79565b9290920192915050565b8054600090600281046001808316806122eb57607f831692505b602080841082141561230b57634e487b7160e01b86526022600452602486fd5b81801561231f57600181146123305761235d565b60ff1986168952848901965061235d565b61233988612df4565b60005b868110156123555781548b82015290850190830161233c565b505084890196505b50505050505092915050565b61227d60f01b815260020190565b6b1e17b9bb339f1e17b9bb339f60a11b8152600c0190565b7f3c2f7376673e3c7376672076696577426f783d2230203020333220333222207781527f696474683d22333222206865696768743d2233322220783d2233322220793d226020820152631999111f60e11b604082015260440190565b600082516123fd818460208701612f79565b9190910192915050565b7403d913730b6b2911d11213634ba36b7b73937b2b99605d1b81528251600090612438816015850160208801612f79565b7f222c20226465736372697074696f6e223a22426c69746d6f6e726f65732061726015918401918201527f65206f6e636861696e20426c69746d61702064657269766174697665732e205460358201527f6f20636f6e7374727563742074686520617274776f726b2c20746865206f726960558201527f67696e616c20426c69746d6170207769746820636f72726573706f6e64696e6760758201527f20746f6b656e20494420697320666574636865642c20636f6c6c61676564206160958201527f6e642066696c746572656420746f2072657475726e2061206d6f64696669656460b58201526c1037b731b430b4b71029ab239760991b60d58201526c1116101134b6b0b3b2911d101160991b60e2820152835161255f8160ef840160208801612f79565b61256d60ef82840101612369565b9695505050505050565b60007f3c73766720786d6c6e733d22687474703a2f2f7777772e77332e6f72672f323082527f30302f737667222076696577426f783d22302030203634203634223e3c73766760208301527f2076696577426f783d22302030203332203332222077696474683d223332222060408301526b3432b4b3b43a1e911999111f60a11b6060830152885161261081606c850160208d01612f79565b7f3c7376672076696577426f783d22302030203332203332222077696474683d22606c918401918201527f333222206865696768743d2233322220783d223332223e000000000000000000608c82015261266d60a382018a6122d1565b9050875161267f818360208c01612f79565b7f3c2f7376673e3c7376672076696577426f783d2230203020333220333222207791019081527f696474683d22333222206865696768743d2233322220793d223332223e00000060208201526127036126fe6126f86126f26126ed6126e7603d87018d6122d1565b8b6122b5565b61238f565b886122d1565b866122b5565b612377565b9a9950505050505050505050565b60007f646174613a6170706c69636174696f6e2f6a736f6e3b6261736536342c0000008252825161274981601d850160208701612f79565b91909101601d0192915050565b60007f646174613a696d6167652f7376672b786d6c3b6261736536342c0000000000008252825161278e81601a850160208701612f79565b91909101601a0192915050565b6001600160a01b0391909116815260200190565b6001600160a01b038581168252841660208201526040810183905260806060820181905260009061256d90830184612289565b6001600160a01b03929092168252602082015260400190565b6000602080830181845280855180835260408601915060408482028701019250838701855b8281101561284e57603f1988860301845261283c858351612289565b94509285019290850190600101612820565b5092979650505050505050565b901515815260200190565b600060208252611c4b6020830184612289565b6020808252602b908201527f455243373231456e756d657261626c653a206f776e657220696e646578206f7560408201526a74206f6620626f756e647360a81b606082015260800190565b60208082526032908201527f4552433732313a207472616e7366657220746f206e6f6e20455243373231526560408201527131b2b4bb32b91034b6b83632b6b2b73a32b960711b606082015260800190565b60208082526026908201527f4f776e61626c653a206e6577206f776e657220697320746865207a65726f206160408201526564647265737360d01b606082015260800190565b6020808252601c908201527f4552433732313a20746f6b656e20616c7265616479206d696e74656400000000604082015260600190565b60208082526024908201527f4552433732313a207472616e7366657220746f20746865207a65726f206164646040820152637265737360e01b606082015260800190565b60208082526019908201527f4552433732313a20617070726f766520746f2063616c6c657200000000000000604082015260600190565b6020808252602c908201527f4552433732313a206f70657261746f7220717565727920666f72206e6f6e657860408201526b34b9ba32b73a103a37b5b2b760a11b606082015260800190565b60208082526038908201527f4552433732313a20617070726f76652063616c6c6572206973206e6f74206f7760408201527f6e6572206e6f7220617070726f76656420666f7220616c6c0000000000000000606082015260800190565b6020808252600990820152684d423a75463a34303960b81b604082015260600190565b6020808252602a908201527f4552433732313a2062616c616e636520717565727920666f7220746865207a65604082015269726f206164647265737360b01b606082015260800190565b60208082526029908201527f4552433732313a206f776e657220717565727920666f72206e6f6e657869737460408201526832b73a103a37b5b2b760b91b606082015260800190565b6020808252818101527f4552433732313a206d696e7420746f20746865207a65726f2061646472657373604082015260600190565b6020808252602c908201527f4552433732313a20617070726f76656420717565727920666f72206e6f6e657860408201526b34b9ba32b73a103a37b5b2b760a11b606082015260800190565b6020808252818101527f4f776e61626c653a2063616c6c6572206973206e6f7420746865206f776e6572604082015260600190565b60208082526029908201527f4552433732313a207472616e73666572206f6620746f6b656e2074686174206960408201526839903737ba1037bbb760b91b606082015260800190565b6020808252602f908201527f4552433732314d657461646174613a2055524920717565727920666f72206e6f60408201526e3732bc34b9ba32b73a103a37b5b2b760891b606082015260800190565b60208082526021908201527f4552433732313a20617070726f76616c20746f2063757272656e74206f776e656040820152603960f91b606082015260800190565b60208082526031908201527f4552433732313a207472616e736665722063616c6c6572206973206e6f74206f6040820152701ddb995c881b9bdc88185c1c1c9bdd9959607a1b606082015260800190565b6020808252602c908201527f455243373231456e756d657261626c653a20676c6f62616c20696e646578206f60408201526b7574206f6620626f756e647360a01b606082015260800190565b90815260200190565b60405181810167ffffffffffffffff81118282101715612dc457612dc4613011565b604052919050565b600067ffffffffffffffff821115612de657612de6613011565b50601f01601f191660200190565b60009081526020902090565b60008219821115612e1357612e13612ffb565b500190565b600082612e3357634e487b7160e01b81526012600452602481fd5b500490565b80825b6001808611612e4a5750610be8565b818704821115612e5c57612e5c612ffb565b80861615612e6957918102915b9490941c938002612e3b565b6000611c4b6000198484600082612e8e57506001611c4b565b81612e9b57506000611c4b565b8160018114612eb15760028114612ebb57612ee8565b6001915050611c4b565b60ff841115612ecc57612ecc612ffb565b6001841b915084821115612ee257612ee2612ffb565b50611c4b565b5060208310610133831016604e8410600b8410161715612f1b575081810a83811115612f1657612f16612ffb565b611c4b565b612f288484846001612e38565b808604821115612f3a57612f3a612ffb565b02949350505050565b6000816000190483118215151615612f5d57612f5d612ffb565b500290565b600082821015612f7457612f74612ffb565b500390565b60005b83811015612f94578181015183820152602001612f7c565b83811115610aa45750506000910152565b600281046001821680612fb957607f821691505b60208210811415612fda57634e487b7160e01b600052602260045260246000fd5b50919050565b6000600019821415612ff457612ff4612ffb565b5060010190565b634e487b7160e01b600052601160045260246000fd5b634e487b7160e01b600052604160045260246000fd5b6001600160e01b03198116811461103557600080fdfe4142434445464748494a4b4c4d4e4f505152535455565758595a6162636465666768696a6b6c6d6e6f707172737475767778797a303132333435363738392b2fa26469706673582212204eaa207d27391b265bd7b23e2e65b75ec1bd84ef79e5ba02d381fd8895a24b0564736f6c634300080000333c66696c7465722069643d226272696c6c6f223e3c6665436f6c6f724d617472697820747970653d226d6174726978222076616c7565733d223020312e30203020302030203020312e30203020302030203020302e362031203020302030203020302031203020222f3e3c2f66696c7465723e3c7376672066696c7465723d2275726c28236272696c6c6f29223e3c66696c7465722069643d226d6172696c796e223e3c6665436f6c6f724d617472697820747970653d226d6174726978222076616c7565733d22312030203020312e37202d312e3620302031203020302e3020302e33202d302e3720302031203020302e35203020302030203120302e32223e3c2f6665436f6c6f724d61747269783e3c2f66696c7465723e3c7376672066696c7465723d2275726c28236d6172696c796e29223e3c66696c7465722069643d226277223e3c6665436f6c6f724d617472697820747970653d226d6174726978222076616c7565733d2230203120302030203020302031203020302030203020312030203020302030203120302031203020222f3e3c2f66696c7465723e3c7376672066696c7465723d2275726c2823627729223e3c66696c7465722069643d2263616d7062656c6c73223e3c6665436f6c6f724d617472697820747970653d226d6174726978222076616c7565733d22312030203020312e39202d322e3220302031203020302e3020302e33203020302031203020302e35203020302030203120302e32223e3c2f6665436f6c6f724d61747269783e3c2f66696c7465723e3c7376672066696c7465723d2275726c282363616d7062656c6c7329223e3c66696c7465722069643d226563223e3c6665436f6c6f724d617472697820747970653d226d6174726978222076616c7565733d22312030203020302030202d302e3420312e33202d302e3420302e32202d302e312030203020312030203020302030203020312030223e3c2f6665436f6c6f724d61747269783e3c2f66696c7465723e3c7376672066696c7465723d2275726c2823656329223e",
  "devdoc": {
    "kind": "dev",
    "methods": {
      "approve(address,uint256)": {
        "details": "See {IERC721-approve}."
      },
      "balanceOf(address)": {
        "details": "See {IERC721-balanceOf}."
      },
      "getApproved(uint256)": {
        "details": "See {IERC721-getApproved}."
      },
      "isApprovedForAll(address,address)": {
        "details": "See {IERC721-isApprovedForAll}."
      },
      "name()": {
        "details": "See {IERC721Metadata-name}."
      },
      "owner()": {
        "details": "Returns the address of the current owner."
      },
      "ownerOf(uint256)": {
        "details": "See {IERC721-ownerOf}."
      },
      "renounceOwnership()": {
        "details": "Leaves the contract without owner. It will not be possible to call `onlyOwner` functions anymore. Can only be called by the current owner. NOTE: Renouncing ownership will leave the contract without an owner, thereby removing any functionality that is only available to the owner."
      },
      "safeTransferFrom(address,address,uint256)": {
        "details": "See {IERC721-safeTransferFrom}."
      },
      "safeTransferFrom(address,address,uint256,bytes)": {
        "details": "See {IERC721-safeTransferFrom}."
      },
      "setApprovalForAll(address,bool)": {
        "details": "See {IERC721-setApprovalForAll}."
      },
      "symbol()": {
        "details": "See {IERC721Metadata-symbol}."
      },
      "tokenByIndex(uint256)": {
        "details": "See {IERC721Enumerable-tokenByIndex}."
      },
      "tokenOfOwnerByIndex(address,uint256)": {
        "details": "See {IERC721Enumerable-tokenOfOwnerByIndex}."
      },
      "tokenURI(uint256)": {
        "details": "See {IERC721Metadata-tokenURI}."
      },
      "totalSupply()": {
        "details": "See {IERC721Enumerable-totalSupply}."
      },
      "transferFrom(address,address,uint256)": {
        "details": "See {IERC721-transferFrom}."
      },
      "transferOwnership(address)": {
        "details": "Transfers ownership of the contract to a new account (`newOwner`). Can only be called by the current owner."
      }
    },
    "version": 1
  },
  "userdoc": {
    "kind": "user",
    "methods": {},
    "version": 1
  },
  "storageLayout": {
    "storage": [
      {
        "astId": 7,
        "contract": "contracts/Blitpops/Blitpops.sol:Blitpops",
        "label": "_owner",
        "offset": 0,
        "slot": "0",
        "type": "t_address"
      },
      {
        "astId": 2006,
        "contract": "contracts/Blitpops/Blitpops.sol:Blitpops",
        "label": "_supportedInterfaces",
        "offset": 0,
        "slot": "1",
        "type": "t_mapping(t_bytes4,t_bool)"
      },
      {
        "astId": 129,
        "contract": "contracts/Blitpops/Blitpops.sol:Blitpops",
        "label": "_name",
        "offset": 0,
        "slot": "2",
        "type": "t_string_storage"
      },
      {
        "astId": 131,
        "contract": "contracts/Blitpops/Blitpops.sol:Blitpops",
        "label": "_symbol",
        "offset": 0,
        "slot": "3",
        "type": "t_string_storage"
      },
      {
        "astId": 135,
        "contract": "contracts/Blitpops/Blitpops.sol:Blitpops",
        "label": "_owners",
        "offset": 0,
        "slot": "4",
        "type": "t_mapping(t_uint256,t_address)"
      },
      {
        "astId": 139,
        "contract": "contracts/Blitpops/Blitpops.sol:Blitpops",
        "label": "_balances",
        "offset": 0,
        "slot": "5",
        "type": "t_mapping(t_address,t_uint256)"
      },
      {
        "astId": 143,
        "contract": "contracts/Blitpops/Blitpops.sol:Blitpops",
        "label": "_tokenApprovals",
        "offset": 0,
        "slot": "6",
        "type": "t_mapping(t_uint256,t_address)"
      },
      {
        "astId": 149,
        "contract": "contracts/Blitpops/Blitpops.sol:Blitpops",
        "label": "_operatorApprovals",
        "offset": 0,
        "slot": "7",
        "type": "t_mapping(t_address,t_mapping(t_address,t_bool))"
      },
      {
        "astId": 1068,
        "contract": "contracts/Blitpops/Blitpops.sol:Blitpops",
        "label": "_ownedTokens",
        "offset": 0,
        "slot": "8",
        "type": "t_mapping(t_address,t_mapping(t_uint256,t_uint256))"
      },
      {
        "astId": 1072,
        "contract": "contracts/Blitpops/Blitpops.sol:Blitpops",
        "label": "_ownedTokensIndex",
        "offset": 0,
        "slot": "9",
        "type": "t_mapping(t_uint256,t_uint256)"
      },
      {
        "astId": 1075,
        "contract": "contracts/Blitpops/Blitpops.sol:Blitpops",
        "label": "_allTokens",
        "offset": 0,
        "slot": "10",
        "type": "t_array(t_uint256)dyn_storage"
      },
      {
        "astId": 1079,
        "contract": "contracts/Blitpops/Blitpops.sol:Blitpops",
        "label": "_allTokensIndex",
        "offset": 0,
        "slot": "11",
        "type": "t_mapping(t_uint256,t_uint256)"
      },
      {
        "astId": 2146,
        "contract": "contracts/Blitpops/Blitpops.sol:Blitpops",
        "label": "BLITMAP_ADDRESS",
        "offset": 0,
        "slot": "12",
        "type": "t_address"
      },
      {
        "astId": 2150,
        "contract": "contracts/Blitpops/Blitpops.sol:Blitpops",
        "label": "filters",
        "offset": 0,
        "slot": "13",
        "type": "t_mapping(t_string_memory_ptr,t_string_storage)"
      },
      {
        "astId": 2153,
        "contract": "contracts/Blitpops/Blitpops.sol:Blitpops",
        "label": "filterNames",
        "offset": 0,
        "slot": "14",
        "type": "t_array(t_string_storage)dyn_storage"
      },
      {
        "astId": 2165,
        "contract": "contracts/Blitpops/Blitpops.sol:Blitpops",
        "label": "filterMap",
        "offset": 0,
        "slot": "15",
        "type": "t_mapping(t_uint256,t_struct(FilterMatrix)2160_storage)"
      }
    ],
    "types": {
      "t_address": {
        "encoding": "inplace",
        "label": "address",
        "numberOfBytes": "20"
      },
      "t_array(t_string_storage)dyn_storage": {
        "base": "t_string_storage",
        "encoding": "dynamic_array",
        "label": "string[]",
        "numberOfBytes": "32"
      },
      "t_array(t_uint256)dyn_storage": {
        "base": "t_uint256",
        "encoding": "dynamic_array",
        "label": "uint256[]",
        "numberOfBytes": "32"
      },
      "t_bool": {
        "encoding": "inplace",
        "label": "bool",
        "numberOfBytes": "1"
      },
      "t_bytes4": {
        "encoding": "inplace",
        "label": "bytes4",
        "numberOfBytes": "4"
      },
      "t_mapping(t_address,t_bool)": {
        "encoding": "mapping",
        "key": "t_address",
        "label": "mapping(address => bool)",
        "numberOfBytes": "32",
        "value": "t_bool"
      },
      "t_mapping(t_address,t_mapping(t_address,t_bool))": {
        "encoding": "mapping",
        "key": "t_address",
        "label": "mapping(address => mapping(address => bool))",
        "numberOfBytes": "32",
        "value": "t_mapping(t_address,t_bool)"
      },
      "t_mapping(t_address,t_mapping(t_uint256,t_uint256))": {
        "encoding": "mapping",
        "key": "t_address",
        "label": "mapping(address => mapping(uint256 => uint256))",
        "numberOfBytes": "32",
        "value": "t_mapping(t_uint256,t_uint256)"
      },
      "t_mapping(t_address,t_uint256)": {
        "encoding": "mapping",
        "key": "t_address",
        "label": "mapping(address => uint256)",
        "numberOfBytes": "32",
        "value": "t_uint256"
      },
      "t_mapping(t_bytes4,t_bool)": {
        "encoding": "mapping",
        "key": "t_bytes4",
        "label": "mapping(bytes4 => bool)",
        "numberOfBytes": "32",
        "value": "t_bool"
      },
      "t_mapping(t_string_memory_ptr,t_string_storage)": {
        "encoding": "mapping",
        "key": "t_string_memory_ptr",
        "label": "mapping(string => string)",
        "numberOfBytes": "32",
        "value": "t_string_storage"
      },
      "t_mapping(t_uint256,t_address)": {
        "encoding": "mapping",
        "key": "t_uint256",
        "label": "mapping(uint256 => address)",
        "numberOfBytes": "32",
        "value": "t_address"
      },
      "t_mapping(t_uint256,t_struct(FilterMatrix)2160_storage)": {
        "encoding": "mapping",
        "key": "t_uint256",
        "label": "mapping(uint256 => struct Blitpops.FilterMatrix)",
        "numberOfBytes": "32",
        "value": "t_struct(FilterMatrix)2160_storage"
      },
      "t_mapping(t_uint256,t_uint256)": {
        "encoding": "mapping",
        "key": "t_uint256",
        "label": "mapping(uint256 => uint256)",
        "numberOfBytes": "32",
        "value": "t_uint256"
      },
      "t_string_memory_ptr": {
        "encoding": "bytes",
        "label": "string",
        "numberOfBytes": "32"
      },
      "t_string_storage": {
        "encoding": "bytes",
        "label": "string",
        "numberOfBytes": "32"
      },
      "t_struct(FilterMatrix)2160_storage": {
        "encoding": "inplace",
        "label": "struct Blitpops.FilterMatrix",
        "members": [
          {
            "astId": 2155,
            "contract": "contracts/Blitpops/Blitpops.sol:Blitpops",
            "label": "filter1",
            "offset": 0,
            "slot": "0",
            "type": "t_string_storage"
          },
          {
            "astId": 2157,
            "contract": "contracts/Blitpops/Blitpops.sol:Blitpops",
            "label": "filter2",
            "offset": 0,
            "slot": "1",
            "type": "t_string_storage"
          },
          {
            "astId": 2159,
            "contract": "contracts/Blitpops/Blitpops.sol:Blitpops",
            "label": "filter3",
            "offset": 0,
            "slot": "2",
            "type": "t_string_storage"
          }
        ],
        "numberOfBytes": "96"
      },
      "t_uint256": {
        "encoding": "inplace",
        "label": "uint256",
        "numberOfBytes": "32"
      }
    }
  }
}