{
  "address": "0xeeB0Ec66DAbc81b0a2112A37223f2e51f454C988",
  "abi": [
    {
      "inputs": [
        {
          "internalType": "address",
          "name": "blitmapAddress",
          "type": "address"
        }
      ],
      "stateMutability": "payable",
      "type": "constructor"
    },
    {
      "anonymous": false,
      "inputs": [
        {
          "indexed": true,
          "internalType": "address",
          "name": "owner",
          "type": "address"
        },
        {
          "indexed": true,
          "internalType": "address",
          "name": "approved",
          "type": "address"
        },
        {
          "indexed": true,
          "internalType": "uint256",
          "name": "tokenId",
          "type": "uint256"
        }
      ],
      "name": "Approval",
      "type": "event"
    },
    {
      "anonymous": false,
      "inputs": [
        {
          "indexed": true,
          "internalType": "address",
          "name": "owner",
          "type": "address"
        },
        {
          "indexed": true,
          "internalType": "address",
          "name": "operator",
          "type": "address"
        },
        {
          "indexed": false,
          "internalType": "bool",
          "name": "approved",
          "type": "bool"
        }
      ],
      "name": "ApprovalForAll",
      "type": "event"
    },
    {
      "anonymous": false,
      "inputs": [
        {
          "indexed": true,
          "internalType": "address",
          "name": "previousOwner",
          "type": "address"
        },
        {
          "indexed": true,
          "internalType": "address",
          "name": "newOwner",
          "type": "address"
        }
      ],
      "name": "OwnershipTransferred",
      "type": "event"
    },
    {
      "anonymous": false,
      "inputs": [
        {
          "indexed": true,
          "internalType": "address",
          "name": "from",
          "type": "address"
        },
        {
          "indexed": true,
          "internalType": "address",
          "name": "to",
          "type": "address"
        },
        {
          "indexed": true,
          "internalType": "uint256",
          "name": "tokenId",
          "type": "uint256"
        }
      ],
      "name": "Transfer",
      "type": "event"
    },
    {
      "inputs": [],
      "name": "BLITMAP_ADDRESS",
      "outputs": [
        {
          "internalType": "address",
          "name": "",
          "type": "address"
        }
      ],
      "stateMutability": "view",
      "type": "function"
    },
    {
      "inputs": [],
      "name": "MINT_PRICE",
      "outputs": [
        {
          "internalType": "uint256",
          "name": "",
          "type": "uint256"
        }
      ],
      "stateMutability": "view",
      "type": "function"
    },
    {
      "inputs": [],
      "name": "ROYALTY_AMOUNT",
      "outputs": [
        {
          "internalType": "uint256",
          "name": "",
          "type": "uint256"
        }
      ],
      "stateMutability": "view",
      "type": "function"
    },
    {
      "inputs": [
        {
          "internalType": "address",
          "name": "to",
          "type": "address"
        },
        {
          "internalType": "uint256",
          "name": "tokenId",
          "type": "uint256"
        }
      ],
      "name": "approve",
      "outputs": [],
      "stateMutability": "nonpayable",
      "type": "function"
    },
    {
      "inputs": [
        {
          "internalType": "address",
          "name": "owner",
          "type": "address"
        }
      ],
      "name": "balanceOf",
      "outputs": [
        {
          "internalType": "uint256",
          "name": "",
          "type": "uint256"
        }
      ],
      "stateMutability": "view",
      "type": "function"
    },
    {
      "inputs": [
        {
          "internalType": "uint256",
          "name": "tokenId",
          "type": "uint256"
        }
      ],
      "name": "getApproved",
      "outputs": [
        {
          "internalType": "address",
          "name": "",
          "type": "address"
        }
      ],
      "stateMutability": "view",
      "type": "function"
    },
    {
      "inputs": [
        {
          "internalType": "address",
          "name": "owner",
          "type": "address"
        },
        {
          "internalType": "address",
          "name": "operator",
          "type": "address"
        }
      ],
      "name": "isApprovedForAll",
      "outputs": [
        {
          "internalType": "bool",
          "name": "",
          "type": "bool"
        }
      ],
      "stateMutability": "view",
      "type": "function"
    },
    {
      "inputs": [],
      "name": "name",
      "outputs": [
        {
          "internalType": "string",
          "name": "",
          "type": "string"
        }
      ],
      "stateMutability": "view",
      "type": "function"
    },
    {
      "inputs": [],
      "name": "owner",
      "outputs": [
        {
          "internalType": "address",
          "name": "",
          "type": "address"
        }
      ],
      "stateMutability": "view",
      "type": "function"
    },
    {
      "inputs": [
        {
          "internalType": "uint256",
          "name": "tokenId",
          "type": "uint256"
        }
      ],
      "name": "ownerMint",
      "outputs": [],
      "stateMutability": "payable",
      "type": "function"
    },
    {
      "inputs": [
        {
          "internalType": "uint256",
          "name": "tokenId",
          "type": "uint256"
        }
      ],
      "name": "ownerOf",
      "outputs": [
        {
          "internalType": "address",
          "name": "",
          "type": "address"
        }
      ],
      "stateMutability": "view",
      "type": "function"
    },
    {
      "inputs": [],
      "name": "renounceOwnership",
      "outputs": [],
      "stateMutability": "nonpayable",
      "type": "function"
    },
    {
      "inputs": [
        {
          "internalType": "uint256",
          "name": "tokenId",
          "type": "uint256"
        },
        {
          "internalType": "uint256",
          "name": "value",
          "type": "uint256"
        },
        {
          "internalType": "bytes",
          "name": "_data",
          "type": "bytes"
        }
      ],
      "name": "royaltyInfo",
      "outputs": [
        {
          "internalType": "address",
          "name": "_receiver",
          "type": "address"
        },
        {
          "internalType": "uint256",
          "name": "royaltyAmount",
          "type": "uint256"
        }
      ],
      "stateMutability": "view",
      "type": "function"
    },
    {
      "inputs": [
        {
          "internalType": "address",
          "name": "from",
          "type": "address"
        },
        {
          "internalType": "address",
          "name": "to",
          "type": "address"
        },
        {
          "internalType": "uint256",
          "name": "tokenId",
          "type": "uint256"
        }
      ],
      "name": "safeTransferFrom",
      "outputs": [],
      "stateMutability": "nonpayable",
      "type": "function"
    },
    {
      "inputs": [
        {
          "internalType": "address",
          "name": "from",
          "type": "address"
        },
        {
          "internalType": "address",
          "name": "to",
          "type": "address"
        },
        {
          "internalType": "uint256",
          "name": "tokenId",
          "type": "uint256"
        },
        {
          "internalType": "bytes",
          "name": "_data",
          "type": "bytes"
        }
      ],
      "name": "safeTransferFrom",
      "outputs": [],
      "stateMutability": "nonpayable",
      "type": "function"
    },
    {
      "inputs": [
        {
          "internalType": "address",
          "name": "operator",
          "type": "address"
        },
        {
          "internalType": "bool",
          "name": "approved",
          "type": "bool"
        }
      ],
      "name": "setApprovalForAll",
      "outputs": [],
      "stateMutability": "nonpayable",
      "type": "function"
    },
    {
      "inputs": [
        {
          "internalType": "bytes4",
          "name": "interfaceId",
          "type": "bytes4"
        }
      ],
      "name": "supportsInterface",
      "outputs": [
        {
          "internalType": "bool",
          "name": "",
          "type": "bool"
        }
      ],
      "stateMutability": "view",
      "type": "function"
    },
    {
      "inputs": [],
      "name": "symbol",
      "outputs": [
        {
          "internalType": "string",
          "name": "",
          "type": "string"
        }
      ],
      "stateMutability": "view",
      "type": "function"
    },
    {
      "inputs": [
        {
          "internalType": "uint256",
          "name": "tokenId",
          "type": "uint256"
        }
      ],
      "name": "tokenURI",
      "outputs": [
        {
          "internalType": "string",
          "name": "",
          "type": "string"
        }
      ],
      "stateMutability": "view",
      "type": "function"
    },
    {
      "inputs": [
        {
          "internalType": "address",
          "name": "from",
          "type": "address"
        },
        {
          "internalType": "address",
          "name": "to",
          "type": "address"
        },
        {
          "internalType": "uint256",
          "name": "tokenId",
          "type": "uint256"
        }
      ],
      "name": "transferFrom",
      "outputs": [],
      "stateMutability": "nonpayable",
      "type": "function"
    },
    {
      "inputs": [
        {
          "internalType": "address",
          "name": "newOwner",
          "type": "address"
        }
      ],
      "name": "transferOwnership",
      "outputs": [],
      "stateMutability": "nonpayable",
      "type": "function"
    },
    {
      "inputs": [
        {
          "internalType": "uint256",
          "name": "tokenId",
          "type": "uint256"
        },
        {
          "internalType": "uint256",
          "name": "depth",
          "type": "uint256"
        }
      ],
      "name": "wrapRecursively",
      "outputs": [
        {
          "internalType": "bytes",
          "name": "",
          "type": "bytes"
        }
      ],
      "stateMutability": "view",
      "type": "function"
    }
  ],
  "transactionHash": "0xf4f19a48a0d11e9c1031d269c0011fee44ca15594afc61ba562402c3df9349f7",
  "args": [
    "0xf6A56f5B9cff7f84320C85C71Cac94092d3CD424"
  ],
  "solcInputHash": "b14684948ffc3cdbb1486fcd8515fc73",
  "bytecode": "0x608060405260405162002d8438038062002d8483398101604081905262000026916200023c565b604080518082018252600f81526e576172686f6c20426c69746d61707360881b60208083019182528351808501909452600584526415d093125560da1b9084015281519192916200007a9160009162000196565b5080516200009090600190602084019062000196565b505050620000ad620000a7620000e560201b60201c565b620000e9565b620000bf63c155531d60e01b6200013b565b600880546001600160a01b0319166001600160a01b0392909216919091179055620002e0565b3390565b600680546001600160a01b038381166001600160a01b0319831681179093556040519116919082907f8be0079c531659141344cd1fd0a4f28419497f9722a3daafe3b4186f6b6457e090600090a35050565b6001600160e01b03198082161415620001715760405162461bcd60e51b815260040162000168906200026c565b60405180910390fd5b6001600160e01b0319166000908152600760205260409020805460ff19166001179055565b828054620001a490620002a3565b90600052602060002090601f016020900481019282620001c8576000855562000213565b82601f10620001e357805160ff191683800117855562000213565b8280016001018555821562000213579182015b8281111562000213578251825591602001919060010190620001f6565b506200022192915062000225565b5090565b5b8082111562000221576000815560010162000226565b6000602082840312156200024e578081fd5b81516001600160a01b038116811462000265578182fd5b9392505050565b6020808252601c908201527f4552433136353a20696e76616c696420696e7465726661636520696400000000604082015260600190565b600281046001821680620002b857607f821691505b60208210811415620002da57634e487b7160e01b600052602260045260246000fd5b50919050565b612a9480620002f06000396000f3fe6080604052600436106101355760003560e01c806395d89b41116100ab578063c155531d1161006f578063c155531d14610337578063c87b56dd14610365578063d9f7ce8214610385578063e985e9c51461039a578063f19e75d4146103ba578063f2fde38b146103cd57610135565b806395d89b41146102b8578063a22cb465146102cd578063b2c75172146102ed578063b88d4fde14610302578063c002d23d1461032257610135565b806342842e0e116100fd57806342842e0e146102015780636352211e1461022157806370a0823114610241578063715018a61461026e57806384807b2b146102835780638da5cb5b146102a357610135565b806301ffc9a71461013a57806306fdde0314610170578063081812fc14610192578063095ea7b3146101bf57806323b872dd146101e1575b600080fd5b34801561014657600080fd5b5061015a610155366004611948565b6103ed565b6040516101679190612100565b60405180910390f35b34801561017c57600080fd5b50610185610400565b604051610167919061210b565b34801561019e57600080fd5b506101b26101ad3660046119f3565b610492565b6040516101679190612096565b3480156101cb57600080fd5b506101df6101da36600461191f565b6104de565b005b3480156101ed57600080fd5b506101df6101fc366004611807565b610576565b34801561020d57600080fd5b506101df61021c366004611807565b6105ae565b34801561022d57600080fd5b506101b261023c3660046119f3565b6105c9565b34801561024d57600080fd5b5061026161025c3660046117bb565b6105fe565b6040516101679190612557565b34801561027a57600080fd5b506101df610642565b34801561028f57600080fd5b5061018561029e366004611a0b565b61068d565b3480156102af57600080fd5b506101b26107d3565b3480156102c457600080fd5b506101856107e2565b3480156102d957600080fd5b506101df6102e83660046118e5565b6107f1565b3480156102f957600080fd5b506102616108bf565b34801561030e57600080fd5b506101df61031d366004611842565b6108c4565b34801561032e57600080fd5b50610261610903565b34801561034357600080fd5b50610357610352366004611a2c565b61090e565b6040516101679291906120e7565b34801561037157600080fd5b506101856103803660046119f3565b61093e565b34801561039157600080fd5b506101b2610a1f565b3480156103a657600080fd5b5061015a6103b53660046117d5565b610a2e565b6101df6103c83660046119f3565b610a5c565b3480156103d957600080fd5b506101df6103e83660046117bb565b610a8f565b60006103f882610afd565b90505b919050565b60606000805461040f90612770565b80601f016020809104026020016040519081016040528092919081815260200182805461043b90612770565b80156104885780601f1061045d57610100808354040283529160200191610488565b820191906000526020600020905b81548152906001019060200180831161046b57829003601f168201915b5050505050905090565b600061049d82610b2e565b6104c25760405162461bcd60e51b81526004016104b9906123fb565b60405180910390fd5b506000908152600460205260409020546001600160a01b031690565b60006104e9826105c9565b9050806001600160a01b0316836001600160a01b0316141561051d5760405162461bcd60e51b81526004016104b9906124c5565b806001600160a01b031661052f610b4b565b6001600160a01b0316148061054b575061054b816103b5610b4b565b6105675760405162461bcd60e51b81526004016104b9906122d6565b6105718383610b4f565b505050565b610587610581610b4b565b82610bbd565b6105a35760405162461bcd60e51b81526004016104b990612506565b610571838383610c42565b610571838383604051806020016040528060008152506108c4565b6000818152600260205260408120546001600160a01b0316806103f85760405162461bcd60e51b81526004016104b99061237d565b60006001600160a01b0382166106265760405162461bcd60e51b81526004016104b990612333565b506001600160a01b031660009081526003602052604090205490565b61064a610b4b565b6001600160a01b031661065b6107d3565b6001600160a01b0316146106815760405162461bcd60e51b81526004016104b990612447565b61068b6000610d6f565b565b6060600061069c83600461270e565b905060006106b36106ae83604061270e565b610dc1565b90506000818283846040516020016106ce9493929190611fac565b60408051601f198184030181526020830190915260008083529092505b848110156107a45760006107006004836127c6565b90506000610728836107136002856127c6565b61071d91906125b2565b6106ae90604061270e565b9050600061075c600261073c6004866127c6565b106107515761074c8560406125b2565b6106ae565b6106ae85604061270e565b905084828261076a8e610f07565b60405160200161077d9493929190611bb1565b6040516020818303038152906040529450505050808061079c906127ab565b9150506106eb565b5081816040516020016107b8929190611b71565b60405160208183030381529060405294505050505092915050565b6006546001600160a01b031690565b60606001805461040f90612770565b6107f9610b4b565b6001600160a01b0316826001600160a01b0316141561082a5760405162461bcd60e51b81526004016104b990612253565b8060056000610837610b4b565b6001600160a01b03908116825260208083019390935260409182016000908120918716808252919093529120805460ff19169215159290921790915561087b610b4b565b6001600160a01b03167f17307eab39ab6107e8899845ad3d59bd9653f200f220920489ca2b5937696c31836040516108b39190612100565b60405180910390a35050565b600a81565b6108d56108cf610b4b565b83610bbd565b6108f15760405162461bcd60e51b81526004016104b990612506565b6108fd84848484611045565b50505050565b66470de4df82000081565b600080606461091e600a8761270e565b61092891906125ef565b90506109326107d3565b91505b94509492505050565b6008546040516338c9319960e21b81526060916109f9916001600160a01b039091169063e324c66490610975908690600401612557565b60006040518083038186803b15801561098d57600080fd5b505afa1580156109a1573d6000803e3d6000fd5b505050506040513d6000823e601f3d908101601f191682016040526109c99190810190611980565b6109d484600261068d565b6040516020016109e5929190611e39565b604051602081830303815290604052611078565b604051602001610a099190611df4565b6040516020818303038152906040529050919050565b6008546001600160a01b031681565b6001600160a01b03918216600090815260056020908152604080832093909416825291909152205460ff1690565b610a6581610b2e565b15610a825760405162461bcd60e51b81526004016104b99061211e565b610a8c33826111ec565b50565b610a97610b4b565b6001600160a01b0316610aa86107d3565b6001600160a01b031614610ace5760405162461bcd60e51b81526004016104b990612447565b6001600160a01b038116610af45760405162461bcd60e51b81526004016104b990612192565b610a8c81610d6f565b6000610b08826112cb565b806103f85750506001600160e01b03191660009081526007602052604090205460ff1690565b6000908152600260205260409020546001600160a01b0316151590565b3390565b600081815260046020526040902080546001600160a01b0319166001600160a01b0384169081179091558190610b84826105c9565b6001600160a01b03167f8c5be1e5ebec7d5bd14f71427d1e84f3dd0314c0f7b2291e5b200ac8c7c3b92560405160405180910390a45050565b6000610bc882610b2e565b610be45760405162461bcd60e51b81526004016104b99061228a565b6000610bef836105c9565b9050806001600160a01b0316846001600160a01b03161480610c2a5750836001600160a01b0316610c1f84610492565b6001600160a01b0316145b80610c3a5750610c3a8185610a2e565b949350505050565b826001600160a01b0316610c55826105c9565b6001600160a01b031614610c7b5760405162461bcd60e51b81526004016104b99061247c565b6001600160a01b038216610ca15760405162461bcd60e51b81526004016104b99061220f565b610cac838383610571565b610cb7600082610b4f565b6001600160a01b0383166000908152600360205260408120805460019290610ce090849061272d565b90915550506001600160a01b0382166000908152600360205260408120805460019290610d0e9084906125b2565b909155505060008181526002602052604080822080546001600160a01b0319166001600160a01b0386811691821790925591518493918716917fddf252ad1be2c89b69c2b068fc378daa952ba7f163c4a11628f55a4df523b3ef91a4505050565b600680546001600160a01b038381166001600160a01b0319831681179093556040519116919082907f8be0079c531659141344cd1fd0a4f28419497f9722a3daafe3b4186f6b6457e090600090a35050565b606081610de657506040805180820190915260018152600360fc1b60208201526103fb565b8160005b8115610e105780610dfa816127ab565b9150610e099050600a836125ef565b9150610dea565b60008167ffffffffffffffff811115610e3957634e487b7160e01b600052604160045260246000fd5b6040519080825280601f01601f191660200182016040528015610e63576020820181803683370190505b509050815b8515610efe57610e7960018261272d565b90506000610e88600a886125ef565b610e9390600a61270e565b610e9d908861272d565b610ea89060306125ca565b905060008160f81b905080848481518110610ed357634e487b7160e01b600052603260045260246000fd5b60200101906001600160f81b031916908160001a905350610ef5600a896125ef565b97505050610e68565b50949350505050565b60408051808201825260148152733b34b2bba137bc1e91181018101999101999111f60611b6020820152600854915163a78d070f60e01b8152606092600091610fc1916001600160a01b03169063a78d070f90610f68908890600401612557565b60006040518083038186803b158015610f8057600080fd5b505afa158015610f94573d6000803e3d6000fd5b505050506040513d6000823e601f3d908101601f19168201604052610fbc9190810190611980565b61130b565b90506000610fd8610fd18461130b565b8390611330565b9050610fe38261134a565b610feb6113c1565b610ff48461134a565b610ffc6113e1565b6110058661134a565b61100d611401565b6110168861134a565b60405160200161102c9796959493929190611c74565b6040516020818303038152906040529350505050919050565b611050848484610c42565b61105c84848484611421565b6108fd5760405162461bcd60e51b81526004016104b990612140565b8051606090806110985750506040805160208101909152600081526103fb565b600060036110a78360026125b2565b6110b191906125ef565b6110bc90600461270e565b905060006110cb8260206125b2565b67ffffffffffffffff8111156110f157634e487b7160e01b600052604160045260246000fd5b6040519080825280601f01601f19166020018201604052801561111b576020820181803683370190505b50905060006040518060600160405280604081526020016128db604091399050600181016020830160005b868110156111a7576003818a01810151603f601282901c8116860151600c83901c8216870151600684901c831688015192909316870151600891821b60ff94851601821b92841692909201901b91160160e01b835260049092019101611146565b5060038606600181146111c157600281146111d2576111de565b613d3d60f01b6001198301526111de565b603d60f81b6000198301525b505050918152949350505050565b6001600160a01b0382166112125760405162461bcd60e51b81526004016104b9906123c6565b61121b81610b2e565b156112385760405162461bcd60e51b81526004016104b9906121d8565b61124460008383610571565b6001600160a01b038216600090815260036020526040812080546001929061126d9084906125b2565b909155505060008181526002602052604080822080546001600160a01b0319166001600160a01b03861690811790915590518392907fddf252ad1be2c89b69c2b068fc378daa952ba7f163c4a11628f55a4df523b3ef908290a45050565b60006001600160e01b031982166380ac58cd60e01b14806112fc57506001600160e01b03198216635b5e139f60e01b145b806103f857506103f88261153c565b61131361178a565b506040805180820190915281518152602082810190820152919050565b61133861178a565b611343838383611555565b5092915050565b60606000826000015167ffffffffffffffff81111561137957634e487b7160e01b600052604160045260246000fd5b6040519080825280601f01601f1916602001820160405280156113a3576020820181803683370190505b509050600060208201905061134381856020015186600001516115f8565b60606040518060e0016040528060a9815260200161291b60a99139905090565b60606040518060c00160405280609b81526020016129c4609b9139905090565b60606040518060e0016040528060a8815260200161283360a89139905090565b6000611435846001600160a01b0316611669565b1561153157836001600160a01b031663150b7a02611451610b4b565b8786866040518563ffffffff1660e01b815260040161147394939291906120aa565b602060405180830381600087803b15801561148d57600080fd5b505af19250505080156114bd575060408051601f3d908101601f191682019092526114ba91810190611964565b60015b611517573d8080156114eb576040519150601f19603f3d011682016040523d82523d6000602084013e6114f0565b606091505b50805161150f5760405162461bcd60e51b81526004016104b990612140565b805181602001fd5b6001600160e01b031916630a85bd0160e11b149050610c3a565b506001949350505050565b6001600160e01b031981166301ffc9a760e01b14919050565b61155d61178a565b600061157b856000015186602001518660000151876020015161166f565b602080870180519186019190915251909150611597908261272d565b8352845160208601516115aa91906125b2565b8114156115ba57600085526115ec565b835183516115c891906125b2565b855186906115d790839061272d565b90525083516115e690826125b2565b60208601525b829150505b9392505050565b60208110611630578151835261160f6020846125b2565b925061161c6020836125b2565b915061162960208261272d565b90506115f8565b6000600161163f83602061272d565b61164b90610100612640565b611655919061272d565b925184518416931916929092179092525050565b3b151590565b600083818685116117755760208511611723576000600161169187602061272d565b61169c90600861270e565b6116a7906002612640565b6116b1919061272d565b85519019915081166000876116c68b8b6125b2565b6116d0919061272d565b855190915083165b828114611715578186106116fd576116f08b8b6125b2565b9650505050505050610c3a565b85611707816127ab565b9650508386511690506116d8565b859650505050505050610c3a565b508383206000905b611735868961272d565b821161177357858320818114156117525783945050505050610c3a565b61175d6001856125b2565b935050818061176b906127ab565b92505061172b565b505b61177f87876125b2565b979650505050505050565b604051806040016040528060008152602001600081525090565b80356001600160a01b03811681146103fb57600080fd5b6000602082840312156117cc578081fd5b6115f1826117a4565b600080604083850312156117e7578081fd5b6117f0836117a4565b91506117fe602084016117a4565b90509250929050565b60008060006060848603121561181b578081fd5b611824846117a4565b9250611832602085016117a4565b9150604084013590509250925092565b60008060008060808587031215611857578081fd5b611860856117a4565b935061186e602086016117a4565b925060408501359150606085013567ffffffffffffffff811115611890578182fd5b8501601f810187136118a0578182fd5b80356118b36118ae8261258a565b612560565b8181528860208385010111156118c7578384fd5b81602084016020830137908101602001929092525092959194509250565b600080604083850312156118f7578182fd5b611900836117a4565b915060208301358015158114611914578182fd5b809150509250929050565b60008060408385031215611931578182fd5b61193a836117a4565b946020939093013593505050565b600060208284031215611959578081fd5b81356115f18161281c565b600060208284031215611975578081fd5b81516115f18161281c565b600060208284031215611991578081fd5b815167ffffffffffffffff8111156119a7578182fd5b8201601f810184136119b7578182fd5b80516119c56118ae8261258a565b8181528560208385010111156119d9578384fd5b6119ea826020830160208601612744565b95945050505050565b600060208284031215611a04578081fd5b5035919050565b60008060408385031215611a1d578182fd5b50508035926020909101359150565b60008060008060608587031215611a41578384fd5b8435935060208501359250604085013567ffffffffffffffff80821115611a66578384fd5b818701915087601f830112611a79578384fd5b813581811115611a87578485fd5b886020828501011115611a98578485fd5b95989497505060200194505050565b60008151808452611abf816020860160208601612744565b601f01601f19169290920160200192915050565b60008151611ae5818560208601612744565b9290920192915050565b61227d60f01b815260020190565b6b1e17b9bb339f1e17b9bb339f60a11b8152600c0190565b7f3c2f7376673e3c7376672076696577426f783d2230203020333220333222207781527f696474683d22333222206865696768743d2233322220783d2233322220793d226020820152631999111f60e11b604082015260440190565b60008351611b83818460208801612744565b835190830190611b97818360208801612744565b651e17b9bb339f60d11b9101908152600601949350505050565b60008551611bc3818460208a01612744565b7f3c7376672076696577426f783d2730203020363420363427200000000000000090830190815262783d2760e81b60198201528551611c0981601c840160208a01612744565b642720793d2760d81b601c92909101918201528451611c2f816021840160208901612744565b6213901f60e91b602192909101918201528351611c53816024840160208801612744565b651e17b9bb339f60d11b60249290910191820152602a019695505050505050565b60007f3c7376672076696577426f783d22302030203634203634223e3c73766720766982527f6577426f783d22302030203332203332222077696474683d223332222068656960208301526833b43a1e911999111f60b91b60408301528851611ce4816049850160208d01612744565b7f3c7376672076696577426f783d22302030203332203332222077696474683d226049918401918201527f333222206865696768743d2233322220783d223332223e00000000000000000060698201528851611d47816080840160208d01612744565b8851910190611d5d816080840160208c01612744565b7f3c2f7376673e3c7376672076696577426f783d22302030203332203332222077608092909101918201527f696474683d22333222206865696768743d2233322220793d223332223e00000060a0820152611de6611de1611ddb611dd5611dd0611dca60bd87018d611ad3565b8b611ad3565b611b15565b88611ad3565b86611ad3565b611afd565b9a9950505050505050505050565b60007f646174613a6170706c69636174696f6e2f6a736f6e3b6261736536342c00000082528251611e2c81601d850160208701612744565b91909101601d0192915050565b7503d913730b6b2911d1110213634ba36b7b73937b2b9960551b81528251600090611e6b816016850160208801612744565b7f222c20226465736372697074696f6e223a2220426c69746d6f6e726f657320616016918401918201527f7265206f6e636861696e20426c69746d61702064657269766174697665732e2060368201527f546f20636f6e7374727563742074686520617274776f726b2c20746865206f7260568201527f6967696e616c20426c69746d6170207769746820636f72726573706f6e64696e60768201527f6720746f6b656e20494420697320666574636865642c2066696c74657265642060968201527f616e6420636f6c6c6167656420746f2061206e6577206f6e636861696e20535660b682015261239760f11b60d6820152691134b6b0b3b2911d101160b11b60d88201527f646174613a696d6167652f7376672b786d6c3b6261736536342c00000000000060e28201526119ea611fa760fc830186611ad3565b611aef565b60007f3c73766720786d6c6e733d27687474703a2f2f7777772e77332e6f72672f32308252740181817b9bb3393903b34b2bba137bc1e939810181605d1b60208301528551612002816035850160208a01612744565b600160fd1b6035918401918201528551612023816036840160208a01612744565b68272077696474683d2760b81b60369290910191820152845161204d81603f840160208901612744565b6927206865696768743d2760b01b603f92909101918201528351612078816049840160208801612744565b6213901f60e91b60499290910191820152604c019695505050505050565b6001600160a01b0391909116815260200190565b6001600160a01b03858116825284166020820152604081018390526080606082018190526000906120dd90830184611aa7565b9695505050505050565b6001600160a01b03929092168252602082015260400190565b901515815260200190565b6000602082526115f16020830184611aa7565b60208082526008908201526757423a6f4d3a303960c01b604082015260600190565b60208082526032908201527f4552433732313a207472616e7366657220746f206e6f6e20455243373231526560408201527131b2b4bb32b91034b6b83632b6b2b73a32b960711b606082015260800190565b60208082526026908201527f4f776e61626c653a206e6577206f776e657220697320746865207a65726f206160408201526564647265737360d01b606082015260800190565b6020808252601c908201527f4552433732313a20746f6b656e20616c7265616479206d696e74656400000000604082015260600190565b60208082526024908201527f4552433732313a207472616e7366657220746f20746865207a65726f206164646040820152637265737360e01b606082015260800190565b60208082526019908201527f4552433732313a20617070726f766520746f2063616c6c657200000000000000604082015260600190565b6020808252602c908201527f4552433732313a206f70657261746f7220717565727920666f72206e6f6e657860408201526b34b9ba32b73a103a37b5b2b760a11b606082015260800190565b60208082526038908201527f4552433732313a20617070726f76652063616c6c6572206973206e6f74206f7760408201527f6e6572206e6f7220617070726f76656420666f7220616c6c0000000000000000606082015260800190565b6020808252602a908201527f4552433732313a2062616c616e636520717565727920666f7220746865207a65604082015269726f206164647265737360b01b606082015260800190565b60208082526029908201527f4552433732313a206f776e657220717565727920666f72206e6f6e657869737460408201526832b73a103a37b5b2b760b91b606082015260800190565b6020808252818101527f4552433732313a206d696e7420746f20746865207a65726f2061646472657373604082015260600190565b6020808252602c908201527f4552433732313a20617070726f76656420717565727920666f72206e6f6e657860408201526b34b9ba32b73a103a37b5b2b760a11b606082015260800190565b6020808252818101527f4f776e61626c653a2063616c6c6572206973206e6f7420746865206f776e6572604082015260600190565b60208082526029908201527f4552433732313a207472616e73666572206f6620746f6b656e2074686174206960408201526839903737ba1037bbb760b91b606082015260800190565b60208082526021908201527f4552433732313a20617070726f76616c20746f2063757272656e74206f776e656040820152603960f91b606082015260800190565b60208082526031908201527f4552433732313a207472616e736665722063616c6c6572206973206e6f74206f6040820152701ddb995c881b9bdc88185c1c1c9bdd9959607a1b606082015260800190565b90815260200190565b60405181810167ffffffffffffffff8111828210171561258257612582612806565b604052919050565b600067ffffffffffffffff8211156125a4576125a4612806565b50601f01601f191660200190565b600082198211156125c5576125c56127da565b500190565b600060ff821660ff84168060ff038211156125e7576125e76127da565b019392505050565b6000826125fe576125fe6127f0565b500490565b80825b60018086116126155750610935565b818704821115612627576126276127da565b8086161561263457918102915b9490941c938002612606565b60006115f16000198484600082612659575060016115f1565b81612666575060006115f1565b816001811461267c5760028114612686576126b3565b60019150506115f1565b60ff841115612697576126976127da565b6001841b9150848211156126ad576126ad6127da565b506115f1565b5060208310610133831016604e8410600b84101617156126e6575081810a838111156126e1576126e16127da565b6115f1565b6126f38484846001612603565b808604821115612705576127056127da565b02949350505050565b6000816000190483118215151615612728576127286127da565b500290565b60008282101561273f5761273f6127da565b500390565b60005b8381101561275f578181015183820152602001612747565b838111156108fd5750506000910152565b60028104600182168061278457607f821691505b602082108114156127a557634e487b7160e01b600052602260045260246000fd5b50919050565b60006000198214156127bf576127bf6127da565b5060010190565b6000826127d5576127d56127f0565b500690565b634e487b7160e01b600052601160045260246000fd5b634e487b7160e01b600052601260045260246000fd5b634e487b7160e01b600052604160045260246000fd5b6001600160e01b031981168114610a8c57600080fdfe3c66696c7465722069643d226d6172696c796e223e3c6665436f6c6f724d617472697820747970653d226d6174726978222076616c7565733d22312030203020312e37202d312e3620302031203020302e3020302e33202d302e3720302031203020302e35203020302030203120302e32223e3c2f6665436f6c6f724d61747269783e3c2f66696c7465723e3c7376672066696c7465723d2275726c28236d6172696c796e29223e4142434445464748494a4b4c4d4e4f505152535455565758595a6162636465666768696a6b6c6d6e6f707172737475767778797a303132333435363738392b2f3c66696c7465722069643d2263616d7062656c6c73223e3c6665436f6c6f724d617472697820747970653d226d6174726978222076616c7565733d22312030203020312e39202d322e3220302031203020302e3020302e33203020302031203020302e35203020302030203120302e32223e3c2f6665436f6c6f724d61747269783e3c2f66696c7465723e3c7376672066696c7465723d2275726c282363616d7062656c6c7329223e3c66696c7465722069643d226563223e3c6665436f6c6f724d617472697820747970653d226d6174726978222076616c7565733d22312030203020302030202d302e3420312e33202d302e3420302e32202d302e312030203020312030203020302030203020312030223e3c2f6665436f6c6f724d61747269783e3c2f66696c7465723e3c7376672066696c7465723d2275726c2823656329223ea2646970667358221220efa4b6d4b19ab7d97d753b818c9873559a01596d3434707fbc84241d1b4f5afb64736f6c63430008000033",
  "devdoc": {
    "kind": "dev",
    "methods": {
      "approve(address,uint256)": {
        "details": "See {IERC721-approve}."
      },
      "balanceOf(address)": {
        "details": "See {IERC721-balanceOf}."
      },
      "getApproved(uint256)": {
        "details": "See {IERC721-getApproved}."
      },
      "isApprovedForAll(address,address)": {
        "details": "See {IERC721-isApprovedForAll}."
      },
      "name()": {
        "details": "See {IERC721Metadata-name}."
      },
      "owner()": {
        "details": "Returns the address of the current owner."
      },
      "ownerOf(uint256)": {
        "details": "See {IERC721-ownerOf}."
      },
      "renounceOwnership()": {
        "details": "Leaves the contract without owner. It will not be possible to call `onlyOwner` functions anymore. Can only be called by the current owner. NOTE: Renouncing ownership will leave the contract without an owner, thereby removing any functionality that is only available to the owner."
      },
      "safeTransferFrom(address,address,uint256)": {
        "details": "See {IERC721-safeTransferFrom}."
      },
      "safeTransferFrom(address,address,uint256,bytes)": {
        "details": "See {IERC721-safeTransferFrom}."
      },
      "setApprovalForAll(address,bool)": {
        "details": "See {IERC721-setApprovalForAll}."
      },
      "symbol()": {
        "details": "See {IERC721Metadata-symbol}."
      },
      "tokenURI(uint256)": {
        "details": "See {IERC721Metadata-tokenURI}."
      },
      "transferFrom(address,address,uint256)": {
        "details": "See {IERC721-transferFrom}."
      },
      "transferOwnership(address)": {
        "details": "Transfers ownership of the contract to a new account (`newOwner`). Can only be called by the current owner."
      }
    },
    "version": 1
  },
  "userdoc": {
    "kind": "user",
    "methods": {},
    "version": 1
  },
  "storageLayout": {
    "storage": [
      {
        "astId": 129,
        "contract": "contracts/Warhols/Warhols.sol:Warhols",
        "label": "_name",
        "offset": 0,
        "slot": "0",
        "type": "t_string_storage"
      },
      {
        "astId": 131,
        "contract": "contracts/Warhols/Warhols.sol:Warhols",
        "label": "_symbol",
        "offset": 0,
        "slot": "1",
        "type": "t_string_storage"
      },
      {
        "astId": 135,
        "contract": "contracts/Warhols/Warhols.sol:Warhols",
        "label": "_owners",
        "offset": 0,
        "slot": "2",
        "type": "t_mapping(t_uint256,t_address)"
      },
      {
        "astId": 139,
        "contract": "contracts/Warhols/Warhols.sol:Warhols",
        "label": "_balances",
        "offset": 0,
        "slot": "3",
        "type": "t_mapping(t_address,t_uint256)"
      },
      {
        "astId": 143,
        "contract": "contracts/Warhols/Warhols.sol:Warhols",
        "label": "_tokenApprovals",
        "offset": 0,
        "slot": "4",
        "type": "t_mapping(t_uint256,t_address)"
      },
      {
        "astId": 149,
        "contract": "contracts/Warhols/Warhols.sol:Warhols",
        "label": "_operatorApprovals",
        "offset": 0,
        "slot": "5",
        "type": "t_mapping(t_address,t_mapping(t_address,t_bool))"
      },
      {
        "astId": 7,
        "contract": "contracts/Warhols/Warhols.sol:Warhols",
        "label": "_owner",
        "offset": 0,
        "slot": "6",
        "type": "t_address"
      },
      {
        "astId": 1637,
        "contract": "contracts/Warhols/Warhols.sol:Warhols",
        "label": "_supportedInterfaces",
        "offset": 0,
        "slot": "7",
        "type": "t_mapping(t_bytes4,t_bool)"
      },
      {
        "astId": 3582,
        "contract": "contracts/Warhols/Warhols.sol:Warhols",
        "label": "BLITMAP_ADDRESS",
        "offset": 0,
        "slot": "8",
        "type": "t_address"
      }
    ],
    "types": {
      "t_address": {
        "encoding": "inplace",
        "label": "address",
        "numberOfBytes": "20"
      },
      "t_bool": {
        "encoding": "inplace",
        "label": "bool",
        "numberOfBytes": "1"
      },
      "t_bytes4": {
        "encoding": "inplace",
        "label": "bytes4",
        "numberOfBytes": "4"
      },
      "t_mapping(t_address,t_bool)": {
        "encoding": "mapping",
        "key": "t_address",
        "label": "mapping(address => bool)",
        "numberOfBytes": "32",
        "value": "t_bool"
      },
      "t_mapping(t_address,t_mapping(t_address,t_bool))": {
        "encoding": "mapping",
        "key": "t_address",
        "label": "mapping(address => mapping(address => bool))",
        "numberOfBytes": "32",
        "value": "t_mapping(t_address,t_bool)"
      },
      "t_mapping(t_address,t_uint256)": {
        "encoding": "mapping",
        "key": "t_address",
        "label": "mapping(address => uint256)",
        "numberOfBytes": "32",
        "value": "t_uint256"
      },
      "t_mapping(t_bytes4,t_bool)": {
        "encoding": "mapping",
        "key": "t_bytes4",
        "label": "mapping(bytes4 => bool)",
        "numberOfBytes": "32",
        "value": "t_bool"
      },
      "t_mapping(t_uint256,t_address)": {
        "encoding": "mapping",
        "key": "t_uint256",
        "label": "mapping(uint256 => address)",
        "numberOfBytes": "32",
        "value": "t_address"
      },
      "t_string_storage": {
        "encoding": "bytes",
        "label": "string",
        "numberOfBytes": "32"
      },
      "t_uint256": {
        "encoding": "inplace",
        "label": "uint256",
        "numberOfBytes": "32"
      }
    }
  }
}