{
  "address": "0xa65F13124Ea6252e4AFCD4e6aD02f96EA059A08F",
  "abi": [
    {
      "inputs": [
        {
          "internalType": "address",
          "name": "blitmapAddress",
          "type": "address"
        }
      ],
      "stateMutability": "payable",
      "type": "constructor"
    },
    {
      "anonymous": false,
      "inputs": [
        {
          "indexed": true,
          "internalType": "address",
          "name": "owner",
          "type": "address"
        },
        {
          "indexed": true,
          "internalType": "address",
          "name": "approved",
          "type": "address"
        },
        {
          "indexed": true,
          "internalType": "uint256",
          "name": "tokenId",
          "type": "uint256"
        }
      ],
      "name": "Approval",
      "type": "event"
    },
    {
      "anonymous": false,
      "inputs": [
        {
          "indexed": true,
          "internalType": "address",
          "name": "owner",
          "type": "address"
        },
        {
          "indexed": true,
          "internalType": "address",
          "name": "operator",
          "type": "address"
        },
        {
          "indexed": false,
          "internalType": "bool",
          "name": "approved",
          "type": "bool"
        }
      ],
      "name": "ApprovalForAll",
      "type": "event"
    },
    {
      "anonymous": false,
      "inputs": [
        {
          "indexed": true,
          "internalType": "address",
          "name": "previousOwner",
          "type": "address"
        },
        {
          "indexed": true,
          "internalType": "address",
          "name": "newOwner",
          "type": "address"
        }
      ],
      "name": "OwnershipTransferred",
      "type": "event"
    },
    {
      "anonymous": false,
      "inputs": [
        {
          "indexed": true,
          "internalType": "address",
          "name": "from",
          "type": "address"
        },
        {
          "indexed": true,
          "internalType": "address",
          "name": "to",
          "type": "address"
        },
        {
          "indexed": true,
          "internalType": "uint256",
          "name": "tokenId",
          "type": "uint256"
        }
      ],
      "name": "Transfer",
      "type": "event"
    },
    {
      "inputs": [],
      "name": "BLITMAP_ADDRESS",
      "outputs": [
        {
          "internalType": "address",
          "name": "",
          "type": "address"
        }
      ],
      "stateMutability": "view",
      "type": "function"
    },
    {
      "inputs": [],
      "name": "MINT_PRICE",
      "outputs": [
        {
          "internalType": "uint256",
          "name": "",
          "type": "uint256"
        }
      ],
      "stateMutability": "view",
      "type": "function"
    },
    {
      "inputs": [],
      "name": "ROYALTY_AMOUNT",
      "outputs": [
        {
          "internalType": "uint256",
          "name": "",
          "type": "uint256"
        }
      ],
      "stateMutability": "view",
      "type": "function"
    },
    {
      "inputs": [
        {
          "internalType": "string",
          "name": "name",
          "type": "string"
        },
        {
          "internalType": "string",
          "name": "filter",
          "type": "string"
        }
      ],
      "name": "addFilter",
      "outputs": [],
      "stateMutability": "nonpayable",
      "type": "function"
    },
    {
      "inputs": [
        {
          "internalType": "address",
          "name": "to",
          "type": "address"
        },
        {
          "internalType": "uint256",
          "name": "tokenId",
          "type": "uint256"
        }
      ],
      "name": "approve",
      "outputs": [],
      "stateMutability": "nonpayable",
      "type": "function"
    },
    {
      "inputs": [
        {
          "internalType": "address",
          "name": "owner",
          "type": "address"
        }
      ],
      "name": "balanceOf",
      "outputs": [
        {
          "internalType": "uint256",
          "name": "",
          "type": "uint256"
        }
      ],
      "stateMutability": "view",
      "type": "function"
    },
    {
      "inputs": [
        {
          "internalType": "uint256",
          "name": "tokenId",
          "type": "uint256"
        }
      ],
      "name": "getApproved",
      "outputs": [
        {
          "internalType": "address",
          "name": "",
          "type": "address"
        }
      ],
      "stateMutability": "view",
      "type": "function"
    },
    {
      "inputs": [
        {
          "internalType": "address",
          "name": "owner",
          "type": "address"
        },
        {
          "internalType": "address",
          "name": "operator",
          "type": "address"
        }
      ],
      "name": "isApprovedForAll",
      "outputs": [
        {
          "internalType": "bool",
          "name": "",
          "type": "bool"
        }
      ],
      "stateMutability": "view",
      "type": "function"
    },
    {
      "inputs": [],
      "name": "listFilters",
      "outputs": [
        {
          "internalType": "string[]",
          "name": "",
          "type": "string[]"
        }
      ],
      "stateMutability": "nonpayable",
      "type": "function"
    },
    {
      "inputs": [],
      "name": "name",
      "outputs": [
        {
          "internalType": "string",
          "name": "",
          "type": "string"
        }
      ],
      "stateMutability": "view",
      "type": "function"
    },
    {
      "inputs": [],
      "name": "owner",
      "outputs": [
        {
          "internalType": "address",
          "name": "",
          "type": "address"
        }
      ],
      "stateMutability": "view",
      "type": "function"
    },
    {
      "inputs": [
        {
          "internalType": "uint256",
          "name": "tokenId",
          "type": "uint256"
        },
        {
          "internalType": "string",
          "name": "filter1",
          "type": "string"
        },
        {
          "internalType": "string",
          "name": "filter2",
          "type": "string"
        },
        {
          "internalType": "string",
          "name": "filter3",
          "type": "string"
        }
      ],
      "name": "ownerMint",
      "outputs": [],
      "stateMutability": "payable",
      "type": "function"
    },
    {
      "inputs": [
        {
          "internalType": "uint256",
          "name": "tokenId",
          "type": "uint256"
        }
      ],
      "name": "ownerOf",
      "outputs": [
        {
          "internalType": "address",
          "name": "",
          "type": "address"
        }
      ],
      "stateMutability": "view",
      "type": "function"
    },
    {
      "inputs": [],
      "name": "renounceOwnership",
      "outputs": [],
      "stateMutability": "nonpayable",
      "type": "function"
    },
    {
      "inputs": [
        {
          "internalType": "uint256",
          "name": "tokenId",
          "type": "uint256"
        },
        {
          "internalType": "uint256",
          "name": "value",
          "type": "uint256"
        },
        {
          "internalType": "bytes",
          "name": "_data",
          "type": "bytes"
        }
      ],
      "name": "royaltyInfo",
      "outputs": [
        {
          "internalType": "address",
          "name": "_receiver",
          "type": "address"
        },
        {
          "internalType": "uint256",
          "name": "royaltyAmount",
          "type": "uint256"
        }
      ],
      "stateMutability": "view",
      "type": "function"
    },
    {
      "inputs": [
        {
          "internalType": "address",
          "name": "from",
          "type": "address"
        },
        {
          "internalType": "address",
          "name": "to",
          "type": "address"
        },
        {
          "internalType": "uint256",
          "name": "tokenId",
          "type": "uint256"
        }
      ],
      "name": "safeTransferFrom",
      "outputs": [],
      "stateMutability": "nonpayable",
      "type": "function"
    },
    {
      "inputs": [
        {
          "internalType": "address",
          "name": "from",
          "type": "address"
        },
        {
          "internalType": "address",
          "name": "to",
          "type": "address"
        },
        {
          "internalType": "uint256",
          "name": "tokenId",
          "type": "uint256"
        },
        {
          "internalType": "bytes",
          "name": "_data",
          "type": "bytes"
        }
      ],
      "name": "safeTransferFrom",
      "outputs": [],
      "stateMutability": "nonpayable",
      "type": "function"
    },
    {
      "inputs": [
        {
          "internalType": "address",
          "name": "operator",
          "type": "address"
        },
        {
          "internalType": "bool",
          "name": "approved",
          "type": "bool"
        }
      ],
      "name": "setApprovalForAll",
      "outputs": [],
      "stateMutability": "nonpayable",
      "type": "function"
    },
    {
      "inputs": [
        {
          "internalType": "bytes4",
          "name": "interfaceId",
          "type": "bytes4"
        }
      ],
      "name": "supportsInterface",
      "outputs": [
        {
          "internalType": "bool",
          "name": "",
          "type": "bool"
        }
      ],
      "stateMutability": "view",
      "type": "function"
    },
    {
      "inputs": [],
      "name": "symbol",
      "outputs": [
        {
          "internalType": "string",
          "name": "",
          "type": "string"
        }
      ],
      "stateMutability": "view",
      "type": "function"
    },
    {
      "inputs": [
        {
          "internalType": "uint256",
          "name": "tokenId",
          "type": "uint256"
        }
      ],
      "name": "tokenURI",
      "outputs": [
        {
          "internalType": "string",
          "name": "",
          "type": "string"
        }
      ],
      "stateMutability": "view",
      "type": "function"
    },
    {
      "inputs": [
        {
          "internalType": "address",
          "name": "from",
          "type": "address"
        },
        {
          "internalType": "address",
          "name": "to",
          "type": "address"
        },
        {
          "internalType": "uint256",
          "name": "tokenId",
          "type": "uint256"
        }
      ],
      "name": "transferFrom",
      "outputs": [],
      "stateMutability": "nonpayable",
      "type": "function"
    },
    {
      "inputs": [
        {
          "internalType": "address",
          "name": "newOwner",
          "type": "address"
        }
      ],
      "name": "transferOwnership",
      "outputs": [],
      "stateMutability": "nonpayable",
      "type": "function"
    },
    {
      "inputs": [
        {
          "internalType": "uint256",
          "name": "tokenId",
          "type": "uint256"
        },
        {
          "internalType": "string",
          "name": "filter1",
          "type": "string"
        },
        {
          "internalType": "string",
          "name": "filter2",
          "type": "string"
        },
        {
          "internalType": "string",
          "name": "filter3",
          "type": "string"
        }
      ],
      "name": "updateFilters",
      "outputs": [],
      "stateMutability": "nonpayable",
      "type": "function"
    }
  ],
  "transactionHash": "0x8a719886d97c1dc9032135242eee6d6611e3c789e1c056ba76ab4563d0e47f32",
  "args": [
    "0xf6A56f5B9cff7f84320C85C71Cac94092d3CD424"
  ],
  "solcInputHash": "8e7adc34b25d8be83cb113d0315fc41f",
  "bytecode": "0x60806040526040516200331638038062003316833981016040819052620000269162000473565b604080518082018252600b81526a426c69746d6f6e726f657360a81b602080830191825283518085019094526007845266212624aa26a7a760c91b908401528151919291620000789160009162000307565b5080516200008e90600190602084019062000307565b505050620000ab620000a56200025660201b60201c565b6200025a565b620000bd63c155531d60e01b620002ac565b600880546001600160a01b0319166001600160a01b0383161790556040805160e0810190915260a9808252620031d2602083013960096040516200010190620004d0565b908152602001604051809103902090805190602001906200012492919062000307565b506040518060c00160405280609b81526020016200327b609b913960096040516200014f90620004b6565b908152602001604051809103902090805190602001906200017292919062000307565b506040518060e0016040528060a881526020016200312a60a8913960096040516200019d90620004a3565b90815260200160405180910390209080519060200190620001c092919062000307565b506002600b556040805160a0810182526009606082019081526863616d7062656c6c7360b81b6080830152815281518083018352600e81526d32b632b1ba3934b196b1b430b4b960911b6020828101919091528083019190915282518084018452600781526636b0b934b63cb760c91b91810191909152918101919091526200024e90600a90600362000396565b505062000559565b3390565b600680546001600160a01b038381166001600160a01b0319831681179093556040519116919082907f8be0079c531659141344cd1fd0a4f28419497f9722a3daafe3b4186f6b6457e090600090a35050565b6001600160e01b03198082161415620002e25760405162461bcd60e51b8152600401620002d990620004e5565b60405180910390fd5b6001600160e01b0319166000908152600760205260409020805460ff19166001179055565b82805462000315906200051c565b90600052602060002090601f01602090048101928262000339576000855562000384565b82601f106200035457805160ff191683800117855562000384565b8280016001018555821562000384579182015b828111156200038457825182559160200191906001019062000367565b5062000392929150620003f6565b5090565b828054828255906000526020600020908101928215620003e8579160200282015b82811115620003e85782518051620003d791849160209091019062000307565b5091602001919060010190620003b7565b50620003929291506200040d565b5b80821115620003925760008155600101620003f7565b80821115620003925760006200042482826200042e565b506001016200040d565b5080546200043c906200051c565b6000825580601f1062000450575062000470565b601f016020900490600052602060002090810190620004709190620003f6565b50565b60006020828403121562000485578081fd5b81516001600160a01b03811681146200049c578182fd5b9392505050565b6636b0b934b63cb760c91b815260070190565b6d32b632b1ba3934b196b1b430b4b960911b8152600e0190565b6863616d7062656c6c7360b81b815260090190565b6020808252601c908201527f4552433136353a20696e76616c696420696e7465726661636520696400000000604082015260600190565b6002810460018216806200053157607f821691505b602082108114156200055357634e487b7160e01b600052602260045260246000fd5b50919050565b612bc180620005696000396000f3fe60806040526004361061014b5760003560e01c806395d89b41116100b6578063c155531d1161006f578063c155531d14610382578063c87b56dd146103b0578063d9f7ce82146103d0578063e985e9c5146103e5578063f22998a814610405578063f2fde38b146104255761014b565b806395d89b41146102f0578063a13170e814610305578063a22cb46514610318578063b2c7517214610338578063b88d4fde1461034d578063c002d23d1461036d5761014b565b806350a1151d1161010857806350a1151d146102375780636352211e1461025957806370a0823114610279578063715018a6146102a65780638da5cb5b146102bb5780639143bafc146102d05761014b565b806301ffc9a71461015057806306fdde0314610186578063081812fc146101a8578063095ea7b3146101d557806323b872dd146101f757806342842e0e14610217575b600080fd5b34801561015c57600080fd5b5061017061016b366004611c45565b610445565b60405161017d9190612400565b60405180910390f35b34801561019257600080fd5b5061019b610458565b60405161017d919061240b565b3480156101b457600080fd5b506101c86101c3366004611d48565b6104ea565b60405161017d9190612336565b3480156101e157600080fd5b506101f56101f0366004611c1c565b610536565b005b34801561020357600080fd5b506101f5610212366004611b2e565b6105ce565b34801561022357600080fd5b506101f5610232366004611b2e565b610606565b34801561024357600080fd5b5061024c610621565b60405161017d91906123a0565b34801561026557600080fd5b506101c8610274366004611d48565b6106fa565b34801561028557600080fd5b50610299610294366004611ae2565b61072f565b60405161017d91906128a7565b3480156102b257600080fd5b506101f5610773565b3480156102c757600080fd5b506101c86107be565b3480156102dc57600080fd5b506101f56102eb366004611d60565b6107cd565b3480156102fc57600080fd5b5061019b610881565b6101f5610313366004611d60565b610890565b34801561032457600080fd5b506101f5610333366004611be2565b610916565b34801561034457600080fd5b506102996109e4565b34801561035957600080fd5b506101f5610368366004611b69565b6109e9565b34801561037957600080fd5b50610299610a22565b34801561038e57600080fd5b506103a261039d366004611de2565b610a2d565b60405161017d929190612387565b3480156103bc57600080fd5b5061019b6103cb366004611d48565b610a5d565b3480156103dc57600080fd5b506101c8610d41565b3480156103f157600080fd5b50610170610400366004611afc565b610d50565b34801561041157600080fd5b506101f5610420366004611ce7565b610d7e565b34801561043157600080fd5b506101f5610440366004611ae2565b610df9565b600061045082610e6a565b90505b919050565b60606000805461046790612ab3565b80601f016020809104026020016040519081016040528092919081815260200182805461049390612ab3565b80156104e05780601f106104b5576101008083540402835291602001916104e0565b820191906000526020600020905b8154815290600101906020018083116104c357829003601f168201915b5050505050905090565b60006104f582610e9b565b61051a5760405162461bcd60e51b8152600401610511906126fc565b60405180910390fd5b506000908152600460205260409020546001600160a01b031690565b6000610541826106fa565b9050806001600160a01b0316836001600160a01b031614156105755760405162461bcd60e51b815260040161051190612815565b806001600160a01b0316610587610eb8565b6001600160a01b031614806105a357506105a381610400610eb8565b6105bf5760405162461bcd60e51b8152600401610511906125b4565b6105c98383610ebc565b505050565b6105df6105d9610eb8565b82610f2a565b6105fb5760405162461bcd60e51b815260040161051190612856565b6105c9838383610faf565b6105c9838383604051806020016040528060008152506109e9565b6060600a805480602002602001604051908101604052809291908181526020016000905b828210156106f157838290600052602060002001805461066490612ab3565b80601f016020809104026020016040519081016040528092919081815260200182805461069090612ab3565b80156106dd5780601f106106b2576101008083540402835291602001916106dd565b820191906000526020600020905b8154815290600101906020018083116106c057829003601f168201915b505050505081526020019060010190610645565b50505050905090565b6000818152600260205260408120546001600160a01b0316806104505760405162461bcd60e51b81526004016105119061267e565b60006001600160a01b0382166107575760405162461bcd60e51b815260040161051190612634565b506001600160a01b031660009081526003602052604090205490565b61077b610eb8565b6001600160a01b031661078c6107be565b6001600160a01b0316146107b25760405162461bcd60e51b815260040161051190612748565b6107bc60006110dc565b565b6006546001600160a01b031690565b6107d6846106fa565b6001600160a01b0316336001600160a01b0316146108065760405162461bcd60e51b815260040161051190612611565b6040805160608101825284815260208082018590528183018490526000878152600c825292909220815180519293919261084392849201906119bb565b50602082810151805161085c92600185019201906119bb565b50604082015180516108789160028401916020909101906119bb565b50505050505050565b60606001805461046790612ab3565b6040805160608101825284815260208082018590528183018490526000878152600c82529290922081518051929391926108cd92849201906119bb565b5060208281015180516108e692600185019201906119bb565b50604082015180516109029160028401916020909101906119bb565b50905050610910338561112e565b50505050565b61091e610eb8565b6001600160a01b0316826001600160a01b0316141561094f5760405162461bcd60e51b815260040161051190612531565b806005600061095c610eb8565b6001600160a01b03908116825260208083019390935260409182016000908120918716808252919093529120805460ff1916921515929092179091556109a0610eb8565b6001600160a01b03167f17307eab39ab6107e8899845ad3d59bd9653f200f220920489ca2b5937696c31836040516109d89190612400565b60405180910390a35050565b600a81565b6109fa6109f4610eb8565b83610f2a565b610a165760405162461bcd60e51b815260040161051190612856565b6109108484848461120d565b66470de4df82000081565b6000806064610a3d600a87612a51565b610a479190612926565b9050610a516107be565b91505b94509492505050565b6060610a6882610e9b565b610a845760405162461bcd60e51b8152600401610511906127c6565b6000828152600c6020526040808220815160608101909252805482908290610aab90612ab3565b80601f0160208091040260200160405190810160405280929190818152602001828054610ad790612ab3565b8015610b245780601f10610af957610100808354040283529160200191610b24565b820191906000526020600020905b815481529060010190602001808311610b0757829003601f168201915b50505050508152602001600182018054610b3d90612ab3565b80601f0160208091040260200160405190810160405280929190818152602001828054610b6990612ab3565b8015610bb65780601f10610b8b57610100808354040283529160200191610bb6565b820191906000526020600020905b815481529060010190602001808311610b9957829003601f168201915b50505050508152602001600282018054610bcf90612ab3565b80601f0160208091040260200160405190810160405280929190818152602001828054610bfb90612ab3565b8015610c485780601f10610c1d57610100808354040283529160200191610c48565b820191906000526020600020905b815481529060010190602001808311610c2b57829003601f168201915b5050509190925250506008546040516338c9319960e21b8152929350610d1a926001600160a01b03909116915063e324c66490610c899087906004016128a7565b60006040518083038186803b158015610ca157600080fd5b505afa158015610cb5573d6000803e3d6000fd5b505050506040513d6000823e601f3d908101601f19168201604052610cdd9190810190611c7d565b610cf585846000015185602001518660400151611240565b604051602001610d06929190611fdb565b60405160208183030381529060405261125f565b604051602001610d2a91906122f1565b604051602081830303815290604052915050919050565b6008546001600160a01b031681565b6001600160a01b03918216600090815260056020908152604080832093909416825291909152205460ff1690565b610d86610eb8565b6001600160a01b0316610d976107be565b6001600160a01b031614610dbd5760405162461bcd60e51b815260040161051190612748565b610dc7600b6113d3565b80600983604051610dd89190611fbf565b908152602001604051809103902090805190602001906105c99291906119bb565b610e01610eb8565b6001600160a01b0316610e126107be565b6001600160a01b031614610e385760405162461bcd60e51b815260040161051190612748565b6001600160a01b038116610e5e5760405162461bcd60e51b815260040161051190612470565b610e67816110dc565b50565b6000610e75826113dc565b806104505750506001600160e01b03191660009081526007602052604090205460ff1690565b6000908152600260205260409020546001600160a01b0316151590565b3390565b600081815260046020526040902080546001600160a01b0319166001600160a01b0384169081179091558190610ef1826106fa565b6001600160a01b03167f8c5be1e5ebec7d5bd14f71427d1e84f3dd0314c0f7b2291e5b200ac8c7c3b92560405160405180910390a45050565b6000610f3582610e9b565b610f515760405162461bcd60e51b815260040161051190612568565b6000610f5c836106fa565b9050806001600160a01b0316846001600160a01b03161480610f975750836001600160a01b0316610f8c846104ea565b6001600160a01b0316145b80610fa75750610fa78185610d50565b949350505050565b826001600160a01b0316610fc2826106fa565b6001600160a01b031614610fe85760405162461bcd60e51b81526004016105119061277d565b6001600160a01b03821661100e5760405162461bcd60e51b8152600401610511906124ed565b6110198383836105c9565b611024600082610ebc565b6001600160a01b038316600090815260036020526040812080546001929061104d908490612a70565b90915550506001600160a01b038216600090815260036020526040812080546001929061107b90849061290e565b909155505060008181526002602052604080822080546001600160a01b0319166001600160a01b0386811691821790925591518493918716917fddf252ad1be2c89b69c2b068fc378daa952ba7f163c4a11628f55a4df523b3ef91a4505050565b600680546001600160a01b038381166001600160a01b0319831681179093556040519116919082907f8be0079c531659141344cd1fd0a4f28419497f9722a3daafe3b4186f6b6457e090600090a35050565b6001600160a01b0382166111545760405162461bcd60e51b8152600401610511906126c7565b61115d81610e9b565b1561117a5760405162461bcd60e51b8152600401610511906124b6565b611186600083836105c9565b6001600160a01b03821660009081526003602052604081208054600192906111af90849061290e565b909155505060008181526002602052604080822080546001600160a01b0319166001600160a01b03861690811790915590518392907fddf252ad1be2c89b69c2b068fc378daa952ba7f163c4a11628f55a4df523b3ef908290a45050565b611218848484610faf565b6112248484848461141c565b6109105760405162461bcd60e51b81526004016105119061241e565b606061125661125186868686611534565b61125f565b95945050505050565b80516060908061127f575050604080516020810190915260008152610453565b6000600361128e83600261290e565b6112989190612926565b6112a3906004612a51565b905060006112b282602061290e565b67ffffffffffffffff8111156112d857634e487b7160e01b600052604160045260246000fd5b6040519080825280601f01601f191660200182016040528015611302576020820181803683370190505b5090506000604051806060016040528060408152602001612b4c604091399050600181016020830160005b8681101561138e576003818a01810151603f601282901c8116860151600c83901c8216870151600684901c831688015192909316870151600891821b60ff94851601821b92841692909201901b91160160e01b83526004909201910161132d565b5060038606600181146113a857600281146113b9576113c5565b613d3d60f01b6001198301526113c5565b603d60f81b6000198301525b505050918152949350505050565b80546001019055565b60006001600160e01b031982166380ac58cd60e01b148061140d57506001600160e01b03198216635b5e139f60e01b145b806104505750610450826116b7565b6000611430846001600160a01b03166116d0565b1561152c57836001600160a01b031663150b7a0261144c610eb8565b8786866040518563ffffffff1660e01b815260040161146e949392919061234a565b602060405180830381600087803b15801561148857600080fd5b505af19250505080156114b8575060408051601f3d908101601f191682019092526114b591810190611c61565b60015b611512573d8080156114e6576040519150601f19603f3d011682016040523d82523d6000602084013e6114eb565b606091505b50805161150a5760405162461bcd60e51b81526004016105119061241e565b805181602001fd5b6001600160e01b031916630a85bd0160e11b149050610fa7565b506001610fa7565b60408051808201825260148152733b34b2bba137bc1e91181018101999101999111f60611b6020820152600854915163a78d070f60e01b81526060926000916115ee916001600160a01b03169063a78d070f90611595908b906004016128a7565b60006040518083038186803b1580156115ad57600080fd5b505afa1580156115c1573d6000803e3d6000fd5b505050506040513d6000823e601f3d908101601f191682016040526115e99190810190611c7d565b6116d6565b905060006116056115fe846116d6565b83906116fb565b905061161082611715565b6009886040516116209190611fbf565b908152602001604051809103902061163784611715565b6009896040516116479190611fbf565b908152602001604051809103902061165e86611715565b60098a60405161166e9190611fbf565b908152602001604051809103902061168588611715565b60405160200161169b9796959493929190612157565b6040516020818303038152906040529350505050949350505050565b6001600160e01b031981166301ffc9a760e01b14919050565b3b151590565b6116de611a3f565b506040805180820190915281518152602082810190820152919050565b611703611a3f565b61170e83838361178c565b5092915050565b60606000826000015167ffffffffffffffff81111561174457634e487b7160e01b600052604160045260246000fd5b6040519080825280601f01601f19166020018201604052801561176e576020820181803683370190505b509050600060208201905061170e818560200151866000015161182f565b611794611a3f565b60006117b285600001518660200151866000015187602001516118a0565b6020808701805191860191909152519091506117ce9082612a70565b8352845160208601516117e1919061290e565b8114156117f15760008552611823565b835183516117ff919061290e565b8551869061180e908390612a70565b905250835161181d908261290e565b60208601525b829150505b9392505050565b60208110611867578151835261184660208461290e565b925061185360208361290e565b9150611860602082612a70565b905061182f565b60006001611876836020612a70565b61188290610100612983565b61188c9190612a70565b925184518416931916929092179092525050565b600083818685116119a6576020851161195457600060016118c2876020612a70565b6118cd906008612a51565b6118d8906002612983565b6118e29190612a70565b85519019915081166000876118f78b8b61290e565b6119019190612a70565b855190915083165b8281146119465781861061192e576119218b8b61290e565b9650505050505050610fa7565b8561193881612aee565b965050838651169050611909565b859650505050505050610fa7565b508383206000905b6119668689612a70565b82116119a457858320818114156119835783945050505050610fa7565b61198e60018561290e565b935050818061199c90612aee565b92505061195c565b505b6119b0878761290e565b979650505050505050565b8280546119c790612ab3565b90600052602060002090601f0160209004810192826119e95760008555611a2f565b82601f10611a0257805160ff1916838001178555611a2f565b82800160010185558215611a2f579182015b82811115611a2f578251825591602001919060010190611a14565b50611a3b929150611a59565b5090565b604051806040016040528060008152602001600081525090565b5b80821115611a3b5760008155600101611a5a565b6000611a81611a7c846128da565b6128b0565b9050828152838383011115611a9557600080fd5b828260208301376000602084830101529392505050565b80356001600160a01b038116811461045357600080fd5b600082601f830112611ad3578081fd5b61182883833560208501611a6e565b600060208284031215611af3578081fd5b61182882611aac565b60008060408385031215611b0e578081fd5b611b1783611aac565b9150611b2560208401611aac565b90509250929050565b600080600060608486031215611b42578081fd5b611b4b84611aac565b9250611b5960208501611aac565b9150604084013590509250925092565b60008060008060808587031215611b7e578081fd5b611b8785611aac565b9350611b9560208601611aac565b925060408501359150606085013567ffffffffffffffff811115611bb7578182fd5b8501601f81018713611bc7578182fd5b611bd687823560208401611a6e565b91505092959194509250565b60008060408385031215611bf4578182fd5b611bfd83611aac565b915060208301358015158114611c11578182fd5b809150509250929050565b60008060408385031215611c2e578182fd5b611c3783611aac565b946020939093013593505050565b600060208284031215611c56578081fd5b813561182881612b35565b600060208284031215611c72578081fd5b815161182881612b35565b600060208284031215611c8e578081fd5b815167ffffffffffffffff811115611ca4578182fd5b8201601f81018413611cb4578182fd5b8051611cc2611a7c826128da565b818152856020838501011115611cd6578384fd5b611256826020830160208601612a87565b60008060408385031215611cf9578182fd5b823567ffffffffffffffff80821115611d10578384fd5b611d1c86838701611ac3565b93506020850135915080821115611d31578283fd5b50611d3e85828601611ac3565b9150509250929050565b600060208284031215611d59578081fd5b5035919050565b60008060008060808587031215611d75578081fd5b84359350602085013567ffffffffffffffff80821115611d93578283fd5b611d9f88838901611ac3565b94506040870135915080821115611db4578283fd5b611dc088838901611ac3565b93506060870135915080821115611dd5578283fd5b50611bd687828801611ac3565b60008060008060608587031215611df7578182fd5b8435935060208501359250604085013567ffffffffffffffff80821115611e1c578384fd5b818701915087601f830112611e2f578384fd5b813581811115611e3d578485fd5b886020828501011115611e4e578485fd5b95989497505060200194505050565b60008151808452611e75816020860160208601612a87565b601f01601f19169290920160200192915050565b60008151611e9b818560208601612a87565b9290920192915050565b805460009060028104600180831680611ebf57607f831692505b6020808410821415611edf57634e487b7160e01b86526022600452602486fd5b818015611ef35760018114611f0457611f31565b60ff19861689528489019650611f31565b611f0d88612902565b60005b86811015611f295781548b820152908501908301611f10565b505084890196505b50505050505092915050565b61227d60f01b815260020190565b6b1e17b9bb339f1e17b9bb339f60a11b8152600c0190565b7f3c2f7376673e3c7376672076696577426f783d2230203020333220333222207781527f696474683d22333222206865696768743d2233322220783d2233322220793d226020820152631999111f60e11b604082015260440190565b60008251611fd1818460208701612a87565b9190910192915050565b7403d913730b6b2911d11213634ba36b7b73937b2b99605d1b8152825160009061200c816015850160208801612a87565b7f222c20226465736372697074696f6e223a22426c69746d6f6e726f65732061726015918401918201527f65206f6e636861696e20426c69746d61702064657269766174697665732e205460358201527f6f20636f6e7374727563742074686520617274776f726b2c20746865206f726960558201527f67696e616c20426c69746d6170207769746820636f72726573706f6e64696e6760758201527f20746f6b656e20494420697320666574636865642c20636f6c6c61676564206160958201527f6e642066696c746572656420746f2072657475726e2061206d6f64696669656460b58201526c1037b731b430b4b71029ab239760991b60d58201527f222c2022696d616765223a2022646174613a696d6167652f7376672b786d6c3b60e28201526618985cd94d8d0b60ca1b610102820152611256612152610109830186611e89565b611f3d565b60007f3c73766720786d6c6e733d22687474703a2f2f7777772e77332e6f72672f323082527f30302f737667222076696577426f783d22302030203634203634223e3c73766760208301527f2076696577426f783d22302030203332203332222077696474683d223332222060408301526b3432b4b3b43a1e911999111f60a11b606083015288516121f081606c850160208d01612a87565b7f3c7376672076696577426f783d22302030203332203332222077696474683d22606c918401918201527f333222206865696768743d2233322220783d223332223e000000000000000000608c82015261224d60a382018a611ea5565b9050875161225f818360208c01612a87565b7f3c2f7376673e3c7376672076696577426f783d2230203020333220333222207791019081527f696474683d22333222206865696768743d2233322220793d223332223e00000060208201526122e36122de6122d86122d26122cd6122c7603d87018d611ea5565b8b611e89565b611f63565b88611ea5565b86611e89565b611f4b565b9a9950505050505050505050565b60007f646174613a6170706c69636174696f6e2f6a736f6e3b6261736536342c0000008252825161232981601d850160208701612a87565b91909101601d0192915050565b6001600160a01b0391909116815260200190565b6001600160a01b038581168252841660208201526040810183905260806060820181905260009061237d90830184611e5d565b9695505050505050565b6001600160a01b03929092168252602082015260400190565b6000602080830181845280855180835260408601915060408482028701019250838701855b828110156123f357603f198886030184526123e1858351611e5d565b945092850192908501906001016123c5565b5092979650505050505050565b901515815260200190565b6000602082526118286020830184611e5d565b60208082526032908201527f4552433732313a207472616e7366657220746f206e6f6e20455243373231526560408201527131b2b4bb32b91034b6b83632b6b2b73a32b960711b606082015260800190565b60208082526026908201527f4f776e61626c653a206e6577206f776e657220697320746865207a65726f206160408201526564647265737360d01b606082015260800190565b6020808252601c908201527f4552433732313a20746f6b656e20616c7265616479206d696e74656400000000604082015260600190565b60208082526024908201527f4552433732313a207472616e7366657220746f20746865207a65726f206164646040820152637265737360e01b606082015260800190565b60208082526019908201527f4552433732313a20617070726f766520746f2063616c6c657200000000000000604082015260600190565b6020808252602c908201527f4552433732313a206f70657261746f7220717565727920666f72206e6f6e657860408201526b34b9ba32b73a103a37b5b2b760a11b606082015260800190565b60208082526038908201527f4552433732313a20617070726f76652063616c6c6572206973206e6f74206f7760408201527f6e6572206e6f7220617070726f76656420666f7220616c6c0000000000000000606082015260800190565b6020808252600990820152684d423a75463a34303960b81b604082015260600190565b6020808252602a908201527f4552433732313a2062616c616e636520717565727920666f7220746865207a65604082015269726f206164647265737360b01b606082015260800190565b60208082526029908201527f4552433732313a206f776e657220717565727920666f72206e6f6e657869737460408201526832b73a103a37b5b2b760b91b606082015260800190565b6020808252818101527f4552433732313a206d696e7420746f20746865207a65726f2061646472657373604082015260600190565b6020808252602c908201527f4552433732313a20617070726f76656420717565727920666f72206e6f6e657860408201526b34b9ba32b73a103a37b5b2b760a11b606082015260800190565b6020808252818101527f4f776e61626c653a2063616c6c6572206973206e6f7420746865206f776e6572604082015260600190565b60208082526029908201527f4552433732313a207472616e73666572206f6620746f6b656e2074686174206960408201526839903737ba1037bbb760b91b606082015260800190565b6020808252602f908201527f4552433732314d657461646174613a2055524920717565727920666f72206e6f60408201526e3732bc34b9ba32b73a103a37b5b2b760891b606082015260800190565b60208082526021908201527f4552433732313a20617070726f76616c20746f2063757272656e74206f776e656040820152603960f91b606082015260800190565b60208082526031908201527f4552433732313a207472616e736665722063616c6c6572206973206e6f74206f6040820152701ddb995c881b9bdc88185c1c1c9bdd9959607a1b606082015260800190565b90815260200190565b60405181810167ffffffffffffffff811182821017156128d2576128d2612b1f565b604052919050565b600067ffffffffffffffff8211156128f4576128f4612b1f565b50601f01601f191660200190565b60009081526020902090565b6000821982111561292157612921612b09565b500190565b60008261294157634e487b7160e01b81526012600452602481fd5b500490565b80825b60018086116129585750610a54565b81870482111561296a5761296a612b09565b8086161561297757918102915b9490941c938002612949565b6000611828600019848460008261299c57506001611828565b816129a957506000611828565b81600181146129bf57600281146129c9576129f6565b6001915050611828565b60ff8411156129da576129da612b09565b6001841b9150848211156129f0576129f0612b09565b50611828565b5060208310610133831016604e8410600b8410161715612a29575081810a83811115612a2457612a24612b09565b611828565b612a368484846001612946565b808604821115612a4857612a48612b09565b02949350505050565b6000816000190483118215151615612a6b57612a6b612b09565b500290565b600082821015612a8257612a82612b09565b500390565b60005b83811015612aa2578181015183820152602001612a8a565b838111156109105750506000910152565b600281046001821680612ac757607f821691505b60208210811415612ae857634e487b7160e01b600052602260045260246000fd5b50919050565b6000600019821415612b0257612b02612b09565b5060010190565b634e487b7160e01b600052601160045260246000fd5b634e487b7160e01b600052604160045260246000fd5b6001600160e01b031981168114610e6757600080fdfe4142434445464748494a4b4c4d4e4f505152535455565758595a6162636465666768696a6b6c6d6e6f707172737475767778797a303132333435363738392b2fa2646970667358221220561e97e046c3cdf2742fafc12120a0a89fca70937b290c756bf52485b913a7e064736f6c634300080000333c66696c7465722069643d226d6172696c796e223e3c6665436f6c6f724d617472697820747970653d226d6174726978222076616c7565733d22312030203020312e37202d312e3620302031203020302e3020302e33202d302e3720302031203020302e35203020302030203120302e32223e3c2f6665436f6c6f724d61747269783e3c2f66696c7465723e3c7376672066696c7465723d2275726c28236d6172696c796e29223e3c66696c7465722069643d2263616d7062656c6c73223e3c6665436f6c6f724d617472697820747970653d226d6174726978222076616c7565733d22312030203020312e39202d322e3220302031203020302e3020302e33203020302031203020302e35203020302030203120302e32223e3c2f6665436f6c6f724d61747269783e3c2f66696c7465723e3c7376672066696c7465723d2275726c282363616d7062656c6c7329223e3c66696c7465722069643d226563223e3c6665436f6c6f724d617472697820747970653d226d6174726978222076616c7565733d22312030203020302030202d302e3420312e33202d302e3420302e32202d302e312030203020312030203020302030203020312030223e3c2f6665436f6c6f724d61747269783e3c2f66696c7465723e3c7376672066696c7465723d2275726c2823656329223e",
  "devdoc": {
    "kind": "dev",
    "methods": {
      "approve(address,uint256)": {
        "details": "See {IERC721-approve}."
      },
      "balanceOf(address)": {
        "details": "See {IERC721-balanceOf}."
      },
      "getApproved(uint256)": {
        "details": "See {IERC721-getApproved}."
      },
      "isApprovedForAll(address,address)": {
        "details": "See {IERC721-isApprovedForAll}."
      },
      "name()": {
        "details": "See {IERC721Metadata-name}."
      },
      "owner()": {
        "details": "Returns the address of the current owner."
      },
      "ownerOf(uint256)": {
        "details": "See {IERC721-ownerOf}."
      },
      "renounceOwnership()": {
        "details": "Leaves the contract without owner. It will not be possible to call `onlyOwner` functions anymore. Can only be called by the current owner. NOTE: Renouncing ownership will leave the contract without an owner, thereby removing any functionality that is only available to the owner."
      },
      "safeTransferFrom(address,address,uint256)": {
        "details": "See {IERC721-safeTransferFrom}."
      },
      "safeTransferFrom(address,address,uint256,bytes)": {
        "details": "See {IERC721-safeTransferFrom}."
      },
      "setApprovalForAll(address,bool)": {
        "details": "See {IERC721-setApprovalForAll}."
      },
      "symbol()": {
        "details": "See {IERC721Metadata-symbol}."
      },
      "tokenURI(uint256)": {
        "details": "See {IERC721Metadata-tokenURI}."
      },
      "transferFrom(address,address,uint256)": {
        "details": "See {IERC721-transferFrom}."
      },
      "transferOwnership(address)": {
        "details": "Transfers ownership of the contract to a new account (`newOwner`). Can only be called by the current owner."
      }
    },
    "version": 1
  },
  "userdoc": {
    "kind": "user",
    "methods": {},
    "version": 1
  },
  "storageLayout": {
    "storage": [
      {
        "astId": 129,
        "contract": "contracts/Blitpops/Blitpops.sol:Blitpops",
        "label": "_name",
        "offset": 0,
        "slot": "0",
        "type": "t_string_storage"
      },
      {
        "astId": 131,
        "contract": "contracts/Blitpops/Blitpops.sol:Blitpops",
        "label": "_symbol",
        "offset": 0,
        "slot": "1",
        "type": "t_string_storage"
      },
      {
        "astId": 135,
        "contract": "contracts/Blitpops/Blitpops.sol:Blitpops",
        "label": "_owners",
        "offset": 0,
        "slot": "2",
        "type": "t_mapping(t_uint256,t_address)"
      },
      {
        "astId": 139,
        "contract": "contracts/Blitpops/Blitpops.sol:Blitpops",
        "label": "_balances",
        "offset": 0,
        "slot": "3",
        "type": "t_mapping(t_address,t_uint256)"
      },
      {
        "astId": 143,
        "contract": "contracts/Blitpops/Blitpops.sol:Blitpops",
        "label": "_tokenApprovals",
        "offset": 0,
        "slot": "4",
        "type": "t_mapping(t_uint256,t_address)"
      },
      {
        "astId": 149,
        "contract": "contracts/Blitpops/Blitpops.sol:Blitpops",
        "label": "_operatorApprovals",
        "offset": 0,
        "slot": "5",
        "type": "t_mapping(t_address,t_mapping(t_address,t_bool))"
      },
      {
        "astId": 7,
        "contract": "contracts/Blitpops/Blitpops.sol:Blitpops",
        "label": "_owner",
        "offset": 0,
        "slot": "6",
        "type": "t_address"
      },
      {
        "astId": 1711,
        "contract": "contracts/Blitpops/Blitpops.sol:Blitpops",
        "label": "_supportedInterfaces",
        "offset": 0,
        "slot": "7",
        "type": "t_mapping(t_bytes4,t_bool)"
      },
      {
        "astId": 1856,
        "contract": "contracts/Blitpops/Blitpops.sol:Blitpops",
        "label": "BLITMAP_ADDRESS",
        "offset": 0,
        "slot": "8",
        "type": "t_address"
      },
      {
        "astId": 1860,
        "contract": "contracts/Blitpops/Blitpops.sol:Blitpops",
        "label": "filters",
        "offset": 0,
        "slot": "9",
        "type": "t_mapping(t_string_memory_ptr,t_string_storage)"
      },
      {
        "astId": 1863,
        "contract": "contracts/Blitpops/Blitpops.sol:Blitpops",
        "label": "filterNames",
        "offset": 0,
        "slot": "10",
        "type": "t_array(t_string_storage)dyn_storage"
      },
      {
        "astId": 1866,
        "contract": "contracts/Blitpops/Blitpops.sol:Blitpops",
        "label": "filterMaxId",
        "offset": 0,
        "slot": "11",
        "type": "t_struct(Counter)1405_storage"
      },
      {
        "astId": 1878,
        "contract": "contracts/Blitpops/Blitpops.sol:Blitpops",
        "label": "filterMap",
        "offset": 0,
        "slot": "12",
        "type": "t_mapping(t_uint256,t_struct(FilterMatrix)1873_storage)"
      }
    ],
    "types": {
      "t_address": {
        "encoding": "inplace",
        "label": "address",
        "numberOfBytes": "20"
      },
      "t_array(t_string_storage)dyn_storage": {
        "base": "t_string_storage",
        "encoding": "dynamic_array",
        "label": "string[]",
        "numberOfBytes": "32"
      },
      "t_bool": {
        "encoding": "inplace",
        "label": "bool",
        "numberOfBytes": "1"
      },
      "t_bytes4": {
        "encoding": "inplace",
        "label": "bytes4",
        "numberOfBytes": "4"
      },
      "t_mapping(t_address,t_bool)": {
        "encoding": "mapping",
        "key": "t_address",
        "label": "mapping(address => bool)",
        "numberOfBytes": "32",
        "value": "t_bool"
      },
      "t_mapping(t_address,t_mapping(t_address,t_bool))": {
        "encoding": "mapping",
        "key": "t_address",
        "label": "mapping(address => mapping(address => bool))",
        "numberOfBytes": "32",
        "value": "t_mapping(t_address,t_bool)"
      },
      "t_mapping(t_address,t_uint256)": {
        "encoding": "mapping",
        "key": "t_address",
        "label": "mapping(address => uint256)",
        "numberOfBytes": "32",
        "value": "t_uint256"
      },
      "t_mapping(t_bytes4,t_bool)": {
        "encoding": "mapping",
        "key": "t_bytes4",
        "label": "mapping(bytes4 => bool)",
        "numberOfBytes": "32",
        "value": "t_bool"
      },
      "t_mapping(t_string_memory_ptr,t_string_storage)": {
        "encoding": "mapping",
        "key": "t_string_memory_ptr",
        "label": "mapping(string => string)",
        "numberOfBytes": "32",
        "value": "t_string_storage"
      },
      "t_mapping(t_uint256,t_address)": {
        "encoding": "mapping",
        "key": "t_uint256",
        "label": "mapping(uint256 => address)",
        "numberOfBytes": "32",
        "value": "t_address"
      },
      "t_mapping(t_uint256,t_struct(FilterMatrix)1873_storage)": {
        "encoding": "mapping",
        "key": "t_uint256",
        "label": "mapping(uint256 => struct Blitpops.FilterMatrix)",
        "numberOfBytes": "32",
        "value": "t_struct(FilterMatrix)1873_storage"
      },
      "t_string_memory_ptr": {
        "encoding": "bytes",
        "label": "string",
        "numberOfBytes": "32"
      },
      "t_string_storage": {
        "encoding": "bytes",
        "label": "string",
        "numberOfBytes": "32"
      },
      "t_struct(Counter)1405_storage": {
        "encoding": "inplace",
        "label": "struct Counters.Counter",
        "members": [
          {
            "astId": 1404,
            "contract": "contracts/Blitpops/Blitpops.sol:Blitpops",
            "label": "_value",
            "offset": 0,
            "slot": "0",
            "type": "t_uint256"
          }
        ],
        "numberOfBytes": "32"
      },
      "t_struct(FilterMatrix)1873_storage": {
        "encoding": "inplace",
        "label": "struct Blitpops.FilterMatrix",
        "members": [
          {
            "astId": 1868,
            "contract": "contracts/Blitpops/Blitpops.sol:Blitpops",
            "label": "filter1",
            "offset": 0,
            "slot": "0",
            "type": "t_string_storage"
          },
          {
            "astId": 1870,
            "contract": "contracts/Blitpops/Blitpops.sol:Blitpops",
            "label": "filter2",
            "offset": 0,
            "slot": "1",
            "type": "t_string_storage"
          },
          {
            "astId": 1872,
            "contract": "contracts/Blitpops/Blitpops.sol:Blitpops",
            "label": "filter3",
            "offset": 0,
            "slot": "2",
            "type": "t_string_storage"
          }
        ],
        "numberOfBytes": "96"
      },
      "t_uint256": {
        "encoding": "inplace",
        "label": "uint256",
        "numberOfBytes": "32"
      }
    }
  }
}